:020000040002F8
:1020000028790020152402001D2402001F2402004C
:1020100021240200232402002524020000000000E5
:102020000000000000000000000000002724020063
:1020300029240200000000002B2402002D240200AD
:10204000512902002F240200B92D02002F24020082
:102050002F2402002F2402001D270200DD29020088
:102060007D2D0200912D0200A52D02002F240200DB
:102070002F2402002F2402002F2402002F2402000C
:102080002F240200A92902002F2402002F2402007D
:10209000992B02002F240200A12B02002F24020002
:1020A0002F2402002F2402002F2402002F240200DC
:1020B0002F2402002F240200000000000000000076
:1020C0002F2402002F2402002F2402002F240200BC
:1020D0002F2402002F2402002F2402002F240200AC
:1020E0002F2402002F2402002F24020000000000F1
:1020F000000000002F240200000000002F24020036
:1021000000000000000000000000000000000000CF
:1021100000000000000000000000000000000000BF
:1021200000000000000000000000000000000000AF
:10213000000000000000000000000000000000009F
:10214000000000000000000000000000000000008F
:10215000000000000000000000000000000000007F
:10216000000000000000000000000000000000006F
:10217000000000000000000000000000000000005F
:10218000000000000000000000000000000000004F
:10219000000000000000000000000000000000003F
:1021A000000000000000000000000000000000002F
:1021B000000000000000000000000000000000001F
:1021C000000000000000000000000000000000000F
:1021D00000000000000000000000000000000000FF
:1021E00000000000000000000000000000000000EF
:1021F00000000000000000000000000000000000DF
:10220000DFF80CD000F03EFA00480047F55302001A
:102210002879002030B450E8012F93B2C4892344B8
:102220008489A34228BF1B1B0489A34202BFBFF3BA
:102230002F8F002007E0C3EA020340E80134002C9E
:10224000E9D14FF001000A6030BC704750E8012F1F
:10225000C2EA024240E801210029F7D1704730B4B8
:1022600050E8022F1FFAA2F3C488A34202BFBFF3B3
:102270002F8F00200DE0C48923448489A34228BF06
:102280001B1BC2EA034340E80234002CE8D14FF0A4
:1022900001000A6030BC704750E8022FC2EA2242B7
:1022A00040E802210029F7D17047034653E8022F86
:1022B000D988B2EB324F4FF0000017BF92B241EA1B
:1022C000014142EA014104E05A68B2EB324F08BFD3
:1022D000012043E80212002AE8D1704730B40446D6
:1022E00054E8000F0D4644E80053002BF8D1156068
:1022F00030BC704730B4044654E8000F40EA010592
:1023000044E80053002BF7D1156030BC704730B45F
:10231000044654E8000F00EA010544E80053002B8E
:10232000F7D1156030BC704730B4044654E8000F54
:1023300080EA010544E80053002BF7D1156030BC5A
:10234000704730B4044654E8000F00EB010544E840
:102350000053002BF7D1156030BC704730B40446F1
:1023600054E8000FA0EB010544E80053002BF7D11F
:10237000156030BC7047000030B4044654E8000FCC
:102380000D4644E80053002BF8D1156030BC70476F
:1023900030B4044654E8000F40EA010544E8005315
:1023A000002BF7D1156030BC704730B4044654E8B8
:1023B000000F00EA010544E80053002BF7D1156037
:1023C00030BC704730B4044654E8000F80EA010581
:1023D00044E80053002BF7D1156030BC704730B48F
:1023E000044654E8000F00EB010544E80053002BBD
:1023F000F7D1156030BC704730B4044654E8000F84
:10240000A0EB010544E80053002BF7D1156030BC68
:10241000704700000648804706480047FEE7FEE791
:10242000FEE7FEE7FEE7FEE7FEE7FEE7FEE7FEE784
:10243000B52B0200012202002DE9F05F05460020C5
:1024400092469B4688460646814640241BE0284625
:1024500041464746224600F0B6F853465A46C01A4F
:10246000914110D311461846224600F09DF82D1ACE
:1024700067EB01084F4622460120002100F094F846
:1024800017EB00094E41201EA4F10104DFDC484691
:1024900031462A464346BDE8F09F00000048704799
:1024A0007894020040EA01039B0703D009E008C9C1
:1024B000121F08C0042AFAD203E011F8013B00F809
:1024C000013B521EF9D27047D2B201E000F8012B55
:1024D000491EFBD270470022F6E710B513460A46A4
:1024E00004461946FFF7F0FF204610BD421C10F8C5
:1024F000011B0029FBD1801A7047034611F8012BFC
:1025000000F8012B002AF9D1184670472DE9F04751
:1025100091460F4680460446002614F8015B2DB113
:10252000FFF7BCFF0068405DC007F6D12B2D02D03D
:102530002D2D18D0641E4A463946204600F053F827
:1025400027B13968A14201D1C7F8008071054FF069
:1025500002040BD54042002803DD00F0E1FC0460DA
:10256000A007BDE8F08746F48066E4E70028F8DAC3
:1025700000F0D6FC04606FF00040F2E730B50B4687
:10258000014600202022012409E021FA02F59D42A3
:1025900005D303FA02F5491B04FA02F52844151E77
:1025A000A2F10102F1DC30BD202A04DB203A00FA5E
:1025B00002F1002070479140C2F1200320FA03F39A
:1025C000194390407047202A04DB203A21FA02F098
:1025D0000021704721FA02F3D040C2F1200291405D
:1025E0000843194670472DE9F05F824600780027BE
:1025F00015468B460AF10104B946302801D09DB139
:1026000013E014F8010B0127782803D0582801D0D3
:1026100045B10AE00DB1102D07D10027102514F89F
:10262000010B02E0082500E00A250026B0460EE076
:1026300005FB080005FB06F1012701EB10461FFA18
:1026400080F8B6F5803F00D3B94614F8010B29464F
:1026500000F02AF80028EBDABBF1000F05D00FB12B
:10266000641E00E05446CBF80040B9F1000F06D0DC
:1026700000F056FC02210160C81EBDE8F09F48EA48
:102680000640FAE7064C074D06E0E06840F001031B
:1026900094E8070098471034AC42F6D3FFF7B4FD36
:1026A000209B0200409B02003A2800D2303820F0E4
:1026B0002002412A01D3A2F13700884201D34FF012
:1026C000FF30704770B58C1810F8015B15F00703E8
:1026D00001D110F8013B2A1106D110F8012B03E0BB
:1026E00010F8016B01F8016B5B1EF9D12B0705D4C3
:1026F0000023521E0DD401F8013BFAE710F8013B0C
:10270000CB1A921C03E013F8015B01F8015B521E27
:10271000F9D5A142D8D3002070BD00002DE9F04FBB
:1027200089B00025A846CDF81C80CDF820804FF454
:10273000807901240026684F484604F091F938B1A9
:10274000D7F80403204018B1484604F07FF9254328
:10275000640009F104091FFA89F9761C082EEBD3ED
:102760004FF4BE74204604F07BF948B1204604F0D3
:102770006DF945F0004507AA0221002004F052F946
:10278000DFF8589115F0FF0F15D0012600242E42D6
:102790000DD007EB8401D1F81005C0F30520D1F866
:1027A0001015C1F3014159F8242002B19047760079
:1027B000641C082CEBD3002D73DACDF81480CDF80F
:1027C00018800020411E0DF10C0848F82010401C14
:1027D0000228FAD30024002509EB050010F8606FE9
:1027E00026F0C00B90F90000401C45D003A95846C4
:1027F00003F02FF8F0B3B609584602F007F859F87D
:1028000020700FB9032E37D1032E0CD105A84FEA43
:10281000DB010BF00702435C4FF0010C0CFA02FCE9
:1028200043EA0C034354CDF808B002A804F0B2F810
:10283000029900EB8100D0F80007C0F3014A07A914
:10284000584603F006F810B1BAF1020F03D088B968
:10285000BAF1030F10D1032E08D1BAF1020F21D023
:102860000221584604F070F8641CE4B217B13146F6
:10287000584600E000E0B8476D1C042DACD334B3DB
:10288000012501AA0221002004F0CCF8002007A9AC
:1028900001AA51F8206052F82030B34204D000253C
:1028A00005E016E00321DCE7401C0228F1D30DB15E
:1028B00000240CE0002005AB52F8205041F82050D5
:1028C00053F8205048F82050401C0228F4D3002C24
:1028D00080D109B0BDE8F08F00600040982E002044
:1028E00000F01F0201219140024A430942F82310DF
:1028F0007047000080E200E000F01F0201219140DB
:102900004209920002F1E022C2F800117047000073
:1029100000F01F0201219140024A430942F82310AE
:102920007047000000E200E010B5002807DA4A070F
:10293000140E054A00F00F031B1FD45403E04A078E
:10294000130E024A135410BD18ED00E000E400E03D
:102950002DE9F0414FF48077384602F0F5FF01246D
:10296000104EA50748B1384602F0F5FF0120C5F822
:1029700008037470002001F051FF4FF4827738464D
:1029800002F0E2FF00280BD0384602F0E4FF0220FC
:10299000C5F80803B470BDE8F041012001F03EBF66
:1029A000BDE8F081842E002010B5002009490860A0
:1029B00000210948C0F84411C0F84811C0F84C1172
:1029C00000200549C1F8000102493C39086005F0C2
:1029D000A9FF10BD40110140001001402DE9FE4348
:1029E0004FF48275284604F0E5FBDFF834810024BB
:1029F0004C4F012608B3284604F0E4FB97F82E104C
:102A000011B197F82F00C0B18DF80040786801909F
:102A10003889ADF80800FA6832B1388B78837A606B
:102A20003881FC6011B103E03C7401E0C8F800603B
:102A300039686846884787F82F4097F82E0070B3AA
:102A40004FF48078404604F0B5FB40B3404604F0B4
:102A5000B9FB7A8B97F82D108A420CD9A2EB0100B2
:102A600080B278833A89A2EB00007A6802EB4000DA
:102A700004F05AFB0DE007D1F86828B187F82F6001
:102A80007C8304F051FB04E08A4202D187F82F6076
:102A90007C83284604F096FB2148001D06604FF415
:102AA0008875284604F086FB48B1284604F08AFB66
:102AB0003C7402208DF800003968684688474FF45E
:102AC0008A75284604F076FB28B1284604F07AFB84
:102AD0003C74BDE8FE837C691FE0B4FA84F04FF0DB
:102AE0000041C1408C434FF48C7101EB80052846B6
:102AF00004F060FB88B1284604F064FB8DF80060A8
:102B0000A5F58C75E8088DF8040045F38000401C9D
:102B10008DF80500396868468847002CDDD1D8E774
:102B200000700040202F002000F056B970B50E460E
:102B30001446184900EB400001EBC00518356869E0
:102B4000002806D0012811D002281BD000242046DE
:102B500070BD284600F074F9A04201D20024F6E7C7
:102B600022463146284600F0A5F9F0E7284600F055
:102B700067F9A04200D2044622463146284600F0BA
:102B800099F9E4E722463146284600F065F9044603
:102B9000DDE700009C36002010B505F0CDFD10BD2E
:102BA00004F084BC02490148086070470090D003DB
:102BB000FC2A002070B502F040F8002420B16048E3
:102BC000046044605F48046002F050F8002855D06B
:102BD0005D4800685D4908605B48001D0068091D8C
:102BE0000860594808300068091D086056480C30D4
:102BF0000068091D0860544810300068091D08600D
:102C0000514814300068091D08604F4818300068AA
:102C10004E49203108604C481C300068091D08608E
:102C2000494820300068091D086047482430006882
:102C3000091D0860444828300068091D08604248A2
:102C40002C300068091D08603F48303000683F495B
:102C5000403108603C4834300068091D08603A483B
:102C600038300068091D086037483C300068091D8D
:102C70000860354840300068091D086002F00FF810
:102C800010B134493248086001F097FF10B1324961
:102C9000FB20086001F09EFF30B1304802783048D8
:102CA000016862F30301016001F0A1FF18B12D4931
:102CB0004FF40070086001F0A7FF30B12A480168A6
:102CC000C90702D06FF0010101602848016841F492
:102CD00070010160BFF34F8FBFF36F8F4FF0102271
:102CE000D2F80002002803DBD2F80402002823DA1D
:102CF0001F4B012018601F4801680029FCD01225D5
:102D0000C2F8005201680029FCD0C2F804520168E0
:102D10000029FCD01C6001680029FCD0BFF34F8F54
:102D200012487C380168144A01F4E06111430160E3
:102D3000BFF34F8F00BFFDE7BDE87040FFF732BF24
:102D40000C010040380500400404001020C500407C
:102D5000488103008C56004018F5004058020010CE
:102D6000E40E0040409602400004004088ED00E080
:102D700004E5014000E401400400FA050422024990
:102D8000024802F097B90000502F00200080004058
:102D900004220249024802F08DB900005C2F002095
:102DA0000090004004220249024802F083B900006A
:102DB000682F002000A000400548017F0548002939
:102DC00002D0034906F003B8014905F06DBF0000C9
:102DD000002F00200020004010B5124C022020617E
:102DE000606111A0A06104F17800E0614FF400700F
:102DF00020620021A1626162E1620BA0A06404F57F
:102E00001E70E06410202065A1656165E16509A17F
:102E1000E01DFFF772FB08A12046FFF76EFB2020A4
:102E2000A07110BD9C3600205465726D696E616C96
:102E300000000000525454005345474745520000DB
:102E40000169C268914204D88068801A0844401E13
:102E50007047881A401E70472DE9F047054689469D
:102E600017464FF00008EC682869A04202D9061BFB
:102E7000761E03E0A968201A0E1A761EA868001BA9
:102E8000B04200D80646BE4200D33E46686832468D
:102E900020444946FFF706FBB044B144BF1B34440D
:102EA000A868A04200D10024EC60002FDCD140468D
:102EB000BDE8F0872DE9F041044688461646E768EC
:102EC000A068C51BE1686068B542084407D932466E
:102ED0004146FFF7E7FAB819E060BDE8F0812A46FD
:102EE0004146FFF7DFFA761B08EB050132466068C2
:102EF000FFF7D8FAE660F0E70FB4084B10B504A965
:102F000002AA039800F038F8044602A9002000F055
:102F1000DDF8204610BC5DF814FB0000CD30020047
:102F200000487047082B002002E008C8121F08C1A3
:102F3000002AFAD170477047002001E001C1121F3A
:102F4000002AFBD1704700000121202807DA8140C8
:102F50000848014201D001207047002070474028F6
:102F600006DA2038814001D00120704700207047E8
:102F700001207047FC06FFBD2DE9FF4F89B09B463D
:102F80000446002506E025280BD05A460B999047A9
:102F9000641C6D1C20780028F5D10DB02846BDE8D2
:102FA000F08F0027B8460122474900E0074314F894
:102FB000013F203B02FA03F00842F7D120782E2887
:102FC00019D114F8010F47F004072A280ED06FF02A
:102FD0002F022078A0F1300109290CD808EB8801D4
:102FE00002EB410100EB0108641CF2E70A98641C43
:102FF00050F8048B0A9020780028CED0642808D09E
:10300000692806D075281ED05A460B9990476D1C2A
:1030100058E00A994FF00A0901C90A91002802DA1A
:1030200040422D2102E0390504D52B218DF82010D6
:10303000012103E0F90704D02021F7E78A4608AE12
:103040000DE00021FAE70A994FF00A0901C90A9137
:10305000F7E74946FFF792FA303106F8011D0028DC
:10306000F7D1ADEB060000F12009780701D44FF04D
:103070000108C84502DDA8EB090000E000208046F9
:10308000002706E008A85A46C05D0B9990476D1CC2
:103090007F1C5745F6DB04E030205A460B999047D9
:1030A0006D1CB8F10001A8F10108F5DC05E016F887
:1030B000010B5A460B9990476D1CB9F10001A9F11B
:1030C0000109F4DC641C65E7092801000A68531C47
:1030D0000B60107070470021425C0AB101207047FC
:1030E000491C0629F8D30020704770B504460D46E8
:1030F00004F12600FFF7EFFF012D06D0022D09D0C5
:10310000032D0CD0042D12D10DE0A17911B108B11D
:10311000012070BDE17911B108B1022070BD207AA3
:1031200008B1032070BD607A08B1042070BD002092
:1031300070BD401C0521B0FBF1F201FB120070478D
:10314000C078400701D4072070470020704710B5B1
:1031500001220221002001F0EDF808B1072810D16A
:1031600007220221012001F0E5F808B1072808D163
:1031700000210A22084601F0DDF808B1072800D135
:10318000002010BD00B5A9B0A02101A8FFF7A3F948
:1031900002208DF8040000208DF8060005208DF82F
:1031A00007000120ADF850000B4915918DF8800003
:1031B00040202390B42024900848279001A9084873
:1031C00000F087FB08B100F097F80121044800F0F7
:1031D0007DFB29B000BD00002C2A002029770200C9
:1031E000382C0020022000F08FBF000070B50024B2
:1031F000064D06E06868012110F8340002F062FC18
:10320000641C28788442F5D3002070BD642A002015
:10321000F8B505460C461646052E01D20720F8BD26
:1032200002F038FD18B902F007FD0028F7D1104868
:103230004560047086600021C16001610D4E0DE0A3
:1032400005EBC4007168009181788DF80110007859
:10325000094A694602F08AFC0028E0D1641EE4B203
:10326000EED2BDE8F840054A0021024800F07EB8E1
:10327000642A0020E4910200F54E0200A94A0200EF
:1032800003F070FE03F0B0FC0028FBD1104C0121CC
:10329000208801EB00400FA103F0B4FD1048006846
:1032A000C00700D000BE2188022000EB01400DA124
:1032B00003F0A8FDBFF34F8F0948E43801680D4AB9
:1032C00001F4E06111430160BFF34F8F00BFFDE7E0
:1032D000842B0020466174616C206572726F7200ED
:1032E000F0ED00E053797374656D20726573657459
:1032F000000000000400FA050EB5002100910191C4
:1033000002906A4644F20100FFF7BAFF0EBD10B505
:103310008268C3689A1A002A03D001F023FD0020B6
:1033200010BD052010BD002905D012B1531E134257
:1033300003D0092070470E20704701608380002170
:103340008160C1600020704710B58268C3689A1A16
:1033500083889A4203D801F00FFD002010BD04209D
:1033600010BD10B504F03EFD10BD000010B50346C1
:103370000C4600BF0B48807808B9082010BD00BF7C
:103380000AB90720FAE70BB90720F7E71868007CAD
:1033900008B10820F2E71968002008744C744A61EB
:1033A00000BFEBE7942F002010B504F04BFD002088
:1033B0000F49087048700B20887000200D49086084
:1033C0000D4908700D4908701420FFF789FA07218C
:1033D0001420FFF7A9FA1420FFF78EFA002004F05A
:1033E00007FD04F0FFFC06490860002010BD000046
:1033F000942F0020782A0020882A0020892A002083
:103400007C2A00202DE9F04104460E461746254649
:1034100000BF1048807810B90820BDE8F08100BFD7
:103420000CB90820F9E7052E01D20720F5E76869F5
:1034300008B90820F1E7687C012801D1304600E096
:10344000002080463B4642463146284605F01AFA9F
:10345000E3E70000942F002070B50446254600BF26
:103460000848807808B9082070BD00BF0CB16869B1
:1034700008B90820F8E7002028740221284605F042
:1034800030FAF1E7942F002070B50A4EB478014667
:103490000948FFF73CFF05464CB10020B070711C95
:1034A0000122C81D02F0BAFE08B1FFF725FF284629
:1034B00070BD00008C2A0020A0300020F0B589B03B
:1034C00004460D461F46294E7260002D1BD0A88869
:1034D000296882B22648FFF726FF002814D1A88960
:1034E000A96882B222481030FFF71DFF00280BD1D7
:1034F0002022204901A8FEF7D5FF60690790207CB3
:1035000020B1012003E0072009B0F0BD00208DF8B4
:1035100018008DF82070607C08B10E2000E00020BB
:103520008DF81900E0680390A0680490206802906C
:10353000606801900D48104A01A9083002F038FE79
:103540000028E1D1B0702068401C0DD09DF821000A
:1035500018B90648083002F0BDFE04490122491C92
:10356000C81D02F05BFECFE70020CDE78C2A0020CB
:10357000A0300020EC910200B98B020030B5EFF3CF
:10358000108372B60B4A94680121002C04D001709C
:10359000002B00D162B630BD916007490D68074C21
:1035A000254015600C604C6854604A174A60002141
:1035B0000170EDE7C030002080E100E0FC06FFBDB7
:1035C00009498A68002A0ED000280CD1EFF3108038
:1035D00072B60B68054A13604B68536000228A601C
:1035E000002800D162B67047C030002000E100E042
:1035F00038B505460C462088001D904201D90C20A4
:1036000038BD684679DF0028FAD121880320685444
:103610002088401C80B22080192129542088401C19
:1036200080B220804119BDF8000005F04CFC2188D3
:1036300008442080002038BD70B505460C4620683F
:10364000411C04D003F0CDF9206803F05BF96068F9
:10365000411C02D0002103F04CF928792C4901EBE0
:103660004010007F48B32868A169C0F82415607D28
:10367000227D29681043C1F86C05D4E9001228683E
:10368000C0F80C15C0F81425207D012814D1A068BD
:10369000411C02D0002103F02CF9E068411C04D049
:1036A00003F09FF9E06803F02DF9D4E902212868BE
:1036B000C0F80815C0F8102570BD2868A169C0F8C9
:1036C0002415617D227D28681143C0F86C15D4E96A
:1036D00000122868C0F81425C0F80C15207D0128B8
:1036E000EAD1A068411C02D0002103F002F9E06891
:1036F000411C04D003F075F9E06803F003F9D4E944
:1037000002212868C0F80815C0F8102570BD000017
:10371000002F0020400C01D000207047012070478E
:1037200010B500200A49D1F810442146012205E0D5
:103730000B7A834201D1002202E049680029F7D1C7
:10374000002A03D1401C0A28EFDB501E10BD0000E8
:103750007C3200202DE9FC410446884615460020B5
:103760002E880021298094F82D10002906D0324699
:103770002946404600F050FA002870D1A17831B1B6
:10378000324629464046FFF733FF002867D1E178EB
:1037900041B194F9030033462A46414601F0F5FA57
:1037A00000285CD1616841B191F9000033462A4696
:1037B000414605F095F9002851D1218951B1CDE953
:1037C000005643460622022104F1080005F02CFCB5
:1037D000002844D1218A51B1CDE900564346072241
:1037E000032104F1100005F01FFC002837D1218BC4
:1037F00051B1CDE9005643461522142104F11800B9
:1038000005F012FC00282AD1276A3FB133462A4628
:103810004146384601F07CF8002820D1676A3FB164
:1038200033462A464146384601F0B6FE002816D1F6
:1038300094F82C1039B133462A464146204604F00C
:10384000B3FD00280BD12178002908D002B03346FF
:103850002A4641462046BDE8F04101F02FBFBDE8B1
:10386000FC8170B592B004460E461F201190109056
:103870000025002C0DD02046FFF762FC002823D144
:1038800011AA08A92046FFF765FF00281CD108AC43
:1038900001E0002411956EB1304604F0A9FE002825
:1038A00012D110AA69463046FFF754FF00280BD109
:1038B0006A4601E000221095BDF84000C3B2BDF891
:1038C0004400C1B2204672DF12B070BD80F82410EF
:1038D000704770B504460D46002D4DD0002C4BD0DE
:1038E000012020700026E670202205F17801201DBD
:1038F000FEF7D8FD8C3404F8686CD5F89800206485
:10390000D5F89C0060644FF6FF70A087673C266086
:10391000A680A671253C04F130003C210646FEF746
:10392000DAFD287804F8300FA878A070E878E07005
:1039300068786070D5E90401C4E90401D5E90201A1
:10394000C4E90201D5E90601C4E9060195F82D0094
:1039500084F82D00303C686AD8B104F16C006065D1
:1039600004F178016167696A09880180686A616D9C
:1039700080888880002008E00E2070BD696A2218C7
:103980008968095C82F87810401C616D89888142E1
:10399000F4D8A86AE8B104F1A400C4F8A0000C3877
:1039A000A065A96A89888180A86AA16D00880880BD
:1039B000002006E0A96A22188968095C82F8A41030
:1039C000401CA16D89888142F4D895F82C0084F8B8
:1039D0005C00286A48B104F1C4002065296A49885E
:1039E0004180286A216D00880880686800B16063A2
:1039F00005F13C013046BDE87040FFF732BF02469A
:103A000008461188102906D0112907D01B2908D192
:103A1000114604F053B8114603F0FFBE114603F0FF
:103A20009ABF704710B50C46022801D0032811D167
:103A3000607800280ED000206070E178204600F009
:103A400028F8002806D0D4F8D010002902D0BDE80C
:103A50001040084710BD10B5044674DF012084F8FB
:103A6000D400002084F8D600062084F8330000211A
:103A700004F13000FFF7F5FE002809D1E178204677
:103A800000F007F818B1D4F8D01001B18847002031
:103A900010BD2DE9FF4104460F462078002809D0CB
:103AA000E77001F08BF9012630B16670002004B098
:103AB000BDE8F0810820FAE70025C4F82550A4F8F5
:103AC000295084F82B50A07910B1E078012808D053
:103AD000E07910B1E178012903D060B1E0780228E3
:103AE00009D1D4F8CC2022B184F82C60082090476A
:103AF00001E084F82C5039462046FFF7F6FAE070D2
:103B0000D4F8CC1041B1032801D0042804D1607945
:103B100010B194F8D40088B184F8D550009501957F
:103B2000029503958DF800508DF80850E07805282F
:103B300020D2DFE800F01E0A0F14190084F8D650D6
:103B400084F8D56007208847E8E76946204604F0F6
:103B500081FC0FE06946204604F085FC0AE06946D6
:103B6000204604F08DFC05E06946204604F0ACFCDC
:103B700000E0A570E07828B194F82410684673DF5F
:103B8000002894D1D4F8CC1009B1A078884700203F
:103B90008DE700002DE9F0410446002C12D01C22D4
:103BA00021461A48FEF77EFC1848194D056020682A
:103BB00058B17ADF002806D1206801682960406882
:103BC000686006E00E20BDE8F08111487BDF002828
:103BD000F9D100240D4D4FF6FF76143DA5F12007D5
:103BE00004EB840005EB8000068007EB4411416084
:103BF000084A0021001DFFF7B9FB08B10320E2E7E6
:103C0000641C002CECD00020DDE70000B02D00206B
:103C1000542A0020818F02007CB505460C4620887E
:103C20000930904201D90C207CBD68466DDF002828
:103C3000FAD12188082068542088401C80B2208056
:103C40001B2129542088401C80B220802844DDF8A4
:103C500001100160BDF8051081802088801D80B2B0
:103C600020809DF80010490806D0012129542088A1
:103C7000401C208000207CBD00212954F7E7000073
:103C800070B588B004465648228803210088554EF6
:103C9000012501EB0040222A41D016DC012A69D01F
:103CA000102A27D0112A33D0132A2FD14EA103F086
:103CB000A9F800231A468521F0887FDF002825D047
:103CC00008B0BDE87040FFF717BB3B2A45D0512A2A
:103CD0005DD0522A32D0562A18D147A103F092F86B
:103CE000A088132176DF002810D008B0BDE870400E
:103CF000FFF702BB44A103F085F8072000F03EFB6C
:103D000008B1FFF7F9FAA088F080757008B070BDAF
:103D100040A103F077F84FF6FF70F080F6E741A17D
:103D200003F070F8002006900790A088002206A9F2
:103D300090DF0028EAD0FFF7DFFAE7E73DA103F0C4
:103D400061F800231A461946F088A9DF0028DDD063
:103D500008B0BDE87040FFF7CFBA3AA103F052F8BF
:103D6000A088132176DF0028D0D008B0BDE87040CD
:103D7000FFF7C2BA37A103F045F8A088002166DF3B
:103D80000028C3D008B0BDE87040FFF7B5BA35A130
:103D900003F038F81022A11D04A8FEF783FB9DF85C
:103DA00010100029B2D09DF81800042803D006286E
:103DB00001D00528AAD102290DD08DF800504FF46A
:103DC000C170ADF80400A0886946A8DF00289DD026
:103DD000FFF792FA9AE702208DF80000EFE7000063
:103DE000842B0020182A0020504152414D2052457A
:103DF0005155455354000000534552564552204CEE
:103E00004143484500000000436F6E6E6563746572
:103E100064000000446973636F6E6E65637465646B
:103E2000000000004C454E47544820555044415432
:103E30004500000053595354454D204C41434845DB
:103E400000000000434C49454E54204C4143484536
:103E5000000000004D454D452052455155455354F5
:103E600000000000415554484F52495A45205245E0
:103E7000515545535400000010B5104C018860683E
:103E800010290FD0112917D1401E6060002813D1CE
:103E9000FFF75DF900280FD0216800290CD0BDE89C
:103EA0001040084728B900F0AFFD10B1216801B1FA
:103EB00088476068401C606010BD00004C2A0020EC
:103EC0000188102907D0112907D0122907D05029BD
:103ED00007D103F009BE03F065BC03F027BD03F072
:103EE00045BC704770B50446224D208810280AD082
:103EF000112821D01A283BD1207A0121B1EB101FC3
:103F00001FD201231EE003F03DFFA08803F00AFF4B
:103F100058B1E07B02280DD000231649A2884C310D
:103F2000281DBDE8704004F00ABABDE870400420C6
:103F3000FFF7E2B90123F0E7A088BDE8704003F085
:103F400041BF00230B49A2885031281D04F0F7F926
:103F5000207A0221B1EB101F01D2012300E00023DF
:103F60000449A2885431281DBDE8704004F0E7B927
:103F700070BD0000CC2D002030B585B004460D4644
:103F80001948D0E905230169C0698DE80E00039046
:103F9000002C25D035B34FF6FF70A0822868A061B1
:103FA0000020A0752146684662DF002816D12078DF
:103FB0008DF812000120ADF81000A21C04A9A0DFAA
:103FC00000280BD12946204603F082FF002805D1A6
:103FD0002946204604F008FD0028FFD105B030BD79
:103FE0000E20FBE70E20F9E7B89102001FB502464C
:103FF000002916D0002A14D008461188102911D0A3
:10400000112915D0502919D057290AD10E498B688A
:104010000A68C9680092CDE9023101908169684659
:1040200088471FBD04B01146BDE8104003F0F2BB45
:1040300004B01146BDE8104003F089BC04B011463D
:10404000BDE8104003F078BDB89102001FB500280C
:104050000CD0838AA3F57F44FF3C09D0837D3BB11C
:104060001388142B06D9072004B010BD0E20FBE7DF
:104070000820F9E7002300930193029303938388B8
:10408000ADF800300391029201218DF80210808A70
:104090006946A6DFE8E70178407841EA002000F0B1
:1040A0000100704708B503F0D5F908B1FFF724F90E
:1040B000002000906946012003F09AF808B1FFF74C
:1040C0001BF9684603F016F9002801D0FFF714F930
:1040D00008BD00000149085C704700006D910200B6
:1040E00008B50849085C0090684602F045FCD0F825
:1040F00010050099C84000F0010000B1012080F0D7
:10410000010008BD6D91020008B50949085C0090E6
:10411000684602F031FC00F204500168009B012265
:104120009A4022EA010343600A40826008BD000011
:10413000699102000249085C012102F05CBC0000A8
:10414000699102000249085C002102F054BC0000A1
:104150006991020008B50849085C0090684602F0C1
:104160000BFCD0F804050099C84000F0010000B134
:10417000012080F0010008BD699102007CB5002497
:10418000084E0025305D012200950023114601955F
:1041900002F064FB641C042CF4D3BDE87C4000F006
:1041A00003B800006991020010B500242046FFF713
:1041B000C1FF641C042CF9D310BD10B500242046A7
:1041C000FFF7C0FF641C042CF9D310BD10B50146E5
:1041D0004FF0FF340020054A135C8B4201D10446A6
:1041E00002E0401C0428F7D3204610BD6D91020068
:1041F00070B5024608460024064D2A60002801D00A
:1042000004F0FDF9686810B9FEF7A1FF04462046E6
:1042100070BD00004C2A002010B5002000F04EFABE
:1042200008B1062806D1012000F048FA08B1062896
:1042300000D1002010BD00002DE9F04781460E4658
:1042400000254846FFF7C2FF0446204F042C31D218
:104250001F4BDFF880A007F10C08D6B1012E02D069
:10426000022E27D122E004EB44001AF8005000EBA4
:104270000A06707848B1154A4FF40041D21C98687C
:10428000FFF7C0F808B987F80390B07808F8040081
:1042900010E09868FFF7E0F804EB4400504418F889
:1042A00004108078814205D1054603E004EB440008
:1042B00050444578002D06D0B968002903D028461F
:1042C000BDE8F0470847BDE8F08700003C2A002021
:1042D00074910200502D0020FFF702BF10B5134962
:1042E0000428CA8807D0072810D00A281DD1BDE8A5
:1042F000104004F00CB91321104676DF082814D0C2
:10430000002812D0BDE81040FEF7F6BFA2F57F40AE
:10431000FF380AD10648FFF79EFB082805D0002881
:1043200003D0BDE81040FEF7E7BF10BD182A0020FB
:10433000382C002030B503460020042B19D2012A66
:1043400002D101290BD000220B4D03EB43035C1972
:1043500069B1012907D0022907D0072030BD03F138
:104360000E02D2B2F0E7EA5430BD627030BDA270E6
:1043700030BD072030BD0000502D00200246002037
:1043800003490979C90702D0104600F04DB87047BB
:104390003C2A002070B5064600241E484660816015
:1043A000B00720D5002506E0012211462846FFF778
:1043B000C1FF04466D1C042D01D2002CF4D034B989
:1043C00040F2666204211448FEF722FF044614B945
:1043D000FEF70CFF044634B90F48104A0021001FB5
:1043E000FEF7C4FF0446F00701D0FFF7C7FE34B95B
:1043F00009480B4A00210C38FEF7B8FF044634B9CF
:104400000548084A01210838FEF7B0FF0446204657
:1044100070BD00003C2A0020809102005D47020030
:10442000B9510200E53102002DE9F05F0446002792
:10443000A04DB9466878002803D085F8019000F0B7
:10444000A5FE9D4E4FF47A6A4FF4C87B4FF00108E9
:10445000182C10D2DFE804F00C1010395A7B8F9B17
:10446000A0ADBAC7D4D8D8D8D8D8FEFDFCFBFAFA8C
:1044700000F08CFE2C7019E10020FFF76BFE38B1C4
:104480000020FFF757FE022C0AD14FF4E16A07E043
:104490000020FFF757FE022C01D14FF0C80BDA467F
:1044A0002C704FEACA304FF4FA724FEA5A41801822
:1044B00041F1000152000023FDF7BEFF014600223A
:1044C0003068FEF79FFF0746F0E00020FFF742FE4E
:1044D00028B10020FFF72EFE4FF4487003E00020C3
:1044E000FFF730FEC8202C70410CC0034FF4FA7265
:1044F000801841F1000152000023FDF79DFF0146A5
:1045000000223068FEF77EFF0746CFE00020FFF76D
:1045100021FE18B10020FFF70DFE03E00020FFF799
:1045200011FEDA462C704FEACA304FF4FA724FEAA5
:104530005A41801841F1000152000023FDF77CFF31
:10454000014600223068FEF75DFF0746AEE000201E
:10455000FFF700FE18B10020FFF7ECFD02E000209D
:10456000FFF7F0FD2C7041F69A1100223068FEF73B
:1045700049FF07469AE00020FFF7C6FD2C70002295
:1045800040F6CD413068FEF73DFF07468EE0002043
:10459000FFF7D8FD2C7089E085F801800120FFF736
:1045A000B3FD002240F6CD413068FEF72BFF0746F1
:1045B0007CE085F801800120FFF7A6FD00224FF482
:1045C00080413068FEF71EFF07466FE085F80180E6
:1045D0000120FFF799FD002240F6CD413068FEF73B
:1045E00011FF074662E085F801800120FFF78CFD8E
:1045F00000224FF480413068FEF704FF074655E083
:10460000FFF7DBFD2C7051E07068FEF725FF0746D1
:10461000C4F1110000B12FB10220FFF78BFD85F826
:10462000029043E001281CD980B2C8214843C11739
:10463000C90341EA5041C0034FF4FA72801841F1B6
:10464000000152000023FDF7F7FE04E02BE020E01C
:1046500018E010E00BE0014600227068FEF7D2FE81
:1046600007460220FFF76EFD85F802801EE000F08D
:104670008DFD2C701AE000F089FD0020FFF762FD2F
:104680002C7013E000F082FD0120FFF75BFD2C7021
:104690000CE000F07BFD0020FFF754FD0120FFF748
:1046A00051FD2C7002E0FFF788FD2C703846BDE804
:1046B000F09F00003C2A00207491020010B5FFF723
:1046C00009FD032102F028F9002010BDF8B50D46C0
:1046D000861C0127002000906846FEF74FFF134C10
:1046E00020682860D4E90001401AA168091A491C11
:1046F000B51C07E000F032FED4E90001401AA168C1
:10470000091A491C8D42F5D8A1682068084004EBBD
:104710008000C16841F00301C1602068304420601E
:104720009DF80000FEF74CFF3846F8BD7C320020B3
:104730008268531C836003689954D0E90121914237
:1047400001D301F03EBF7047034803C8814201D145
:1047500001207047002070477C3200200078022141
:10476000FFF76ABD38B504460B490320FFF712FE78
:1047700008B1FEF7C1FD69460020FFF739FD08B119
:10478000FEF7BAFD9DF80000022802D0002020703C
:1047900038BD0120FBE70000DD42020005494FF073
:1047A000FF3241F82020082802D3084480F858201E
:1047B00070470000982E0020F0B507464FF0FF30FC
:1047C000002A02D04FF0000301E04FF0080302D0AE
:1047D0004FF0080501E04FF00C050B4C04E054F8D5
:1047E0002360761C03D05B1CAB42F8D3F0BDE51907
:1047F00058B285F8300044F82310002AF6D1E118A9
:1048000081F85870F0BD0000982E0020024908443D
:1048100090F9300070470000982E002070B50546D2
:10482000002D01D0064C05E0054C083C02E0416833
:1048300028468847204600F0A2FC0028F7D170BD2A
:10484000942E00202DE9F04782461E48006800287B
:1048500036D01C480068056803F0C4FA07461A48B9
:1048600004682146384603F05AFFC61C17480078F2
:1048700008B903F0C9FAAE4201D2284600E030463A
:10488000044424F07F44204603F0A6FA03F0AAFA79
:1048900080463946404603F042FF00F1030939469D
:1048A000204603F03CFF814509D903F09BFA81467D
:1048B00003F092FA2F2001F057F804F07FF800BFC0
:1048C000BDE8F087782A00207C2A00208A2A002070
:1048D0000188062907D34FF448634FF6FF729942C7
:1048E00003D9914201D0072070474088062803D39E
:1048F000984203D9904201D007207047914205D0D9
:10490000904203D0814201D90720704700207047B0
:1049100070B506460D4614462088801D984201D980
:104920000C2070BD3046FFF7D3FF0028F9D1218855
:10493000052068542088401C80B220801221295410
:104940002088401C80B220804119308804F0BBFAD6
:104950002188084480B220804119708804F0B3FA9D
:10496000218808442080002070BDFEF7C5BC0000EF
:1049700000B587B01C216846FDF7ADFD0020009012
:104980004FF4203101914FF47021029103218DF8F1
:104990000C10ADF80E008DF8100006480590064882
:1049A00006906846FFF7F6F8002801D0FEF7A4FC51
:1049B00007B000BD517702006B49020038B54A7A52
:1049C000104B002A0CD000220A725969002906D027
:1049D00001228DF80020ADF802006846884738BDF6
:1049E0000A7A62B19B684C68024619462046FEF777
:1049F00009FD0028F3D0BDE8384003F0A7BC5B6890
:104A0000F1E70000B02D002010B50021012208467A
:104A1000FFF790FC08B1072810D1072202210120DE
:104A2000FFF788FC08B1072808D1042202210020E2
:104A3000FFF780FC08B1072800D1002010BD00005E
:104A40001CB5044600200090019001EBC400017BDE
:104A5000ADF80010007BADF8020000226946204648
:104A600090DF0346002B08D004480121224600882D
:104A700001EB0040024902F0D0F91CBD0C2B0020D4
:104A80004C95020010B50146002908D0086840B1D5
:104A9000046842680A6000F095F9204610BD0020C5
:104AA00010BD002010BD00002DE9F04100250127B8
:104AB000DFF8608027E0D8F8040000EBC504207818
:104AC00007FA00F6D8F810100E421AD0B143C8F811
:104AD000101001F0A9F801462078D8F80C3007FA38
:104AE00000F21A4001FA00F39A420AD16278012AD0
:104AF00001D0012300E000234B4062680AB1D9B223
:104B000090476D1CEDB298F800008542D3D3BDE804
:104B1000F0810000642A0020014614480078144AFD
:104B2000127890421DD011480078401C0F4A107036
:104B300010460078022801D1002010700D480B4A61
:104B4000127850F8220008600B4A08681268104476
:104B5000094A10601046006820F07F401060012074
:104B600070470020086000BFFAE70000882A002094
:104B7000892A0020802A00207C2A002070B5044663
:104B80000D46082000F0D2FC34B128B105600021A8
:104B90004160216819B908E0002070BD11464A68DB
:104BA000002AFBD14860012070BD2060012070BD4B
:104BB000D0E90310084428DF70474FF08050D0F848
:104BC0003011082902D1D0F8340108B10020704713
:104BD000012070474FF08050D0F83011082902D1E1
:104BE000D0F8340108B100207047012070474FF021
:104BF0008050D0F83011082902D1D0F8340108B122
:104C000000207047012070474FF08050D0F83011DD
:104C1000082908D1D0F8340138B1012807D002287A
:104C200007D0032807D001207047012070470120DA
:104C3000704701207047012070474FF08050D0F836
:104C40003011082908D1D0F8340138B1012807D033
:104C5000022807D0032807D00120704701207047A1
:104C60000120704701207047012070474FF08050AD
:104C7000D0F83011082908D1D0F8340138B1012812
:104C800007D0022807D0032807D001207047012051
:104C900070470120704701207047012070474FF096
:104CA0008050D0F83011082902D1D0F8340108B171
:104CB000002070470120704730B585B004460D468E
:104CC0002068806800281FD014216846FDF703FC87
:104CD0000195A0680490207910B1012810D107E057
:104CE00001208DF80000206902906069039007E0C0
:104CF00002208DF80000E0680003029060690390D4
:104D0000206881686846884705B030BDF0B5034625
:104D100000241FE0124E306806689E4203D90668E0
:104D2000F61A06601AE006689B1B066834440026E3
:104D300006600B4E35680A4FC6693E60C66846B1CC
:104D40000E1926F07F464660C66886601668C66102
:104D5000156000BF024800680028DBD100BFF0BD2D
:104D6000782A0020826883881A4003689A5C0A7057
:104D70008168491C81607047C26883881A40036853
:104D80009954C168491CC160704730B51488E51C4E
:104D90009D4201D90C2030BD02230B5513885B1CAA
:104DA0009BB213800124CC5413885B1C9BB21380EC
:104DB000C8541088401C1080002030BD002001F035
:104DC000D5BC000010B5002821D0114B0022001FD7
:104DD000196803E0814203D80A4649680029F9D1DD
:104DE00052B11368841A9C4204D1006818441060C0
:104DF000104602E0506000E0186039B102680B1AFA
:104E0000934203D10B681A4402604968416010BDA7
:104E1000002B00200EB59DF8000020F00F00401C74
:104E200020F0F0001030009008220EA168467CDFD0
:104E3000002801D0FEF760FA0020019002900621C0
:104E4000ADF804100821ADF80610ADF808004FF4D5
:104E5000C870ADF80A0001A87ADF002801D0FEF77B
:104E60004BFA0EBD4361707465757231000000002D
:104E70000B484A88C3889A4211D10A88A2F5206358
:104E8000773B0CD18988C91E8AB20281054803216B
:104E90001346008801EB004003A101F0BEBF70473C
:104EA000182A0020842B002044617461206C656EF8
:104EB0002069732073657420746F2030782558281A
:104EC0002564290010B50949094800F0D5FC08B14E
:104ED000FEF712FA1721064800F0C3FC002803D0A1
:104EE000BDE81040FEF708BA10BD0000714E020088
:104EF000242C00202DE9F04107460124BC40114E2E
:104F00003068FEF7A9FA00280DD10F4D286920421C
:104F100007D1384600F088FE38B1E8682043E860E1
:104F200006E0A0432861BDE8F081E868A043E8609E
:104F3000286920432861A9683068BDE8F041002253
:104F4000FEF760BAE4910200642A00200021084ABA
:104F500001EB810332F82330834204D101EB81005D
:104F600002EB80007047491C0029F1D000207047F7
:104F70009C2D00202DE9FC5F8346DDE90C470E46A1
:104F800091469846C6F1000A002E01DA504600E02C
:104F90003046012502E090FBF9F06D1C4845FADA35
:104FA000A84500D9454624B1002E01DB780700D57D
:104FB000641EB80702D5B8F1000F0BD0F80709D16D
:104FC0002CB907E0641E20215846FFF7B1FB0CB155
:104FD000A542F7D3002E05DA56462D215846FFF795
:104FE000A7FB05E0780703D52B215846FFF7A0FB68
:104FF00007F0030002280CD1B8F1000F09D12CB939
:1050000007E0641E30215846FFF792FB0CB1A54221
:10501000F7D3CDE9004743464A463146584603F0A8
:1050200057FFBDE8FC9F000070B504460D4620798F
:105030001D494FF4A27601EB4010017F2068002942
:105040001DD04FF4887102F0DFFA4FF490712068A0
:1050500002F0DAFA4FF49271206802F0D5FA314684
:10506000206802F0D1FA11492068C0F804132068C2
:1050700000F024FD2946BDE8704000F003BD4FF468
:105080008E7102F0B0FA3146206802F0ACFA08499D
:105090002068C0F80413206800F010FD2946BDE820
:1050A000704000F0EFBC0000002F00201003020051
:1050B00080000200F8B505460E46174600241EE0A3
:1050C0004FF4A07000EB840080B24FF48031A14017
:1050D0002A580AB1012300E0002373B1D5F8042354
:1050E0000A4201D0012100E0002131B10021295004
:1050F00029580091D6E900219047641CE4B2BC42D3
:10510000DED3F8BD0121814003484068014201D04F
:1051100001207047002070475C2A002001460120D2
:105120008840FEF7F7BAF0B58488A618944200D8F4
:105130002246A71AC588EC189D4200D82B46EB1AC8
:105140004A880588AA4202D34088824201D90020B9
:10515000F0BD8888B84201D3B04201D90020F0BD2B
:10516000C888984201D3A04201D90020F0BD012097
:10517000F0BD01218140C80300D0012070470146E5
:105180000868002801D002680A60704710B5094815
:105190008078002809D00024022C02D02046FEF797
:1051A000C9FF641C042CF7D310BDBDE81040FEF706
:1051B000FBBF00003C2A002003480179C90702D048
:1051C0000078FFF731B970473C2A002006490120DA
:1051D000086006480168C1F300410029FAD104497A
:1051E00000208870704700000C0000401804004048
:1051F000842E00201721018041800021017141711E
:105200001B218171C17170472DE9F04106460027CD
:105210004748D0F8008078E016B13446E66947E0A8
:105220004448007800EB40014248001D00EBC105F6
:10523000001F0078401C3F490870084600788978B4
:10524000884202D100203B4908706C682878012808
:105250001AD0022802D0032817D107E0686803F0AB
:10526000CDFA00B10127002020744EE007E030495C
:105270000868002101742E4AC169116000BF2C48E2
:1052800000680028F3D140E000E03EE000BF207C51
:1052900000B13AE0A8686060E868A0602869E06052
:1052A0006869A0612448007808B10020606000BFF0
:1052B000224960680968401A20F07F4020498842EE
:1052C00008D21E496068096803F029FAA1680844F9
:1052D00020600FE019486168006803F020FA054675
:1052E000A068A84203D9A068401B206001E000200C
:1052F000206000BF00206060A060012020740020BA
:10530000E061204603F046FA00BF002E84D1094830
:105310000078084949788842F8D11FB904480068E4
:10532000404502D00120BDE8F0810020FBE70000ED
:10533000782A0020942F00208B2A00207C2A00202D
:10534000FFFF7F0010B5002001F0C4FD08B1FDF79C
:10535000D3FFBDE8104001F039BC00007FB5234801
:1053600000F012FA2148001F064600F00DFA204D09
:105370006C68AA6804EA020005EB80010C310AE0BF
:10538000641CC1F3891000EB9150044404EA02004C
:1053900005EB80010C3109688807F1D0002101ABD1
:1053A0002046641C104005EB8000C06843F82100D3
:1053B000491C0229F4D3019800F00300012808D009
:1053C00002280AD10198032101EB905004EB9004CC
:1053D00003E00198C0F383100444304600216A467C
:1053E000FCF7E3FF002800D06C607FBD94360020FE
:1053F0007C3200201CB5FDF7D7FF08B1FDF77CFF1C
:1054000003F030FCFFF79EFF01A8FFF7ABF9FEF7B2
:1054100049FEFFF7FFFCFFF755FD03F00BF8FDF722
:10542000B1FEFFF7A5FADFF8E0804FF0030937A1DE
:10543000B8F8000009EB004001F0E4FC0321364815
:10544000FEF727FB08B1FDF757FF02F0D1FD334D02
:10545000E86802F019FE00260127687818B102F00A
:1054600005FE6E70AF70A8780028F6D02869002875
:10547000F3DD401E28612948401D02F065FE2748E3
:105480002030FFF7FFFA0446687902F081FEACB3E2
:1054900000960022B4F90000002800DA404208B16A
:1054A0000A2104E0009705E090FBF1F0521C00286F
:1054B000FAD10092BDF80000801C0090B4F90020E1
:1054C00017A12846FDF718FD13486A4629463038CB
:1054D000FEF7BCFD0028F7D1287878B1FDF741FF31
:1054E0004FF47A714843C20BEA61B8F80000B4F98E
:1054F000003009EB00400BA101F08FFC01F074FBC0
:1055000002F084FBA9E70000842B0020534E4120C9
:105510007374617274210000382C0020182A002056
:10552000256400002569092564000000F0B50B30F2
:10553000154D20F007010024144A0FE003688B4248
:105540000BD38B4205D95E1A43184768C3E900673D
:1055500000E04368136002C004E0021D10680028E8
:10556000ECD12046002802D1286808B10020F0BD07
:10557000064A07481060074A121A22F00702C0E9DB
:10558000002401202860D7E7042B0020002B0020F6
:105590002C3900202859002070B505460E461446C7
:1055A000A888801C2188821C0A449A4201D90C20B8
:1055B00070BDFE2801D90C2070BD401C705420889D
:1055C000401C80B22080FF2131542088401C80B2D2
:1055D00020808119288803F076FC2188084480B255
:1055E0002080AA8842B1A96841B13044FCF75AFF33
:1055F0002088A98808442080002070BD072070BD45
:105600002DE9F0478946DDF820A01546C6880446F6
:10561000181DB0FBF6F1B0FBF6F206FB12005A19AA
:105620003244D21CB2FBF6F201E02468491E002984
:10563000FBD10027A6EB0008A8451DD9A8461BE012
:10564000BAF1000F07D02118091D09EB07004246E7
:10565000FCF728FF06E0204409EB0701001D424645
:10566000FCF720FF00202468A5EB08054744AE4264
:1056700001D9A84600E0B046002DE1D1BDE8F08791
:1056800030B50346002914D001F052FC00210A4C29
:105690000BE001EB410204EB82021D685288AA4232
:1056A00002D11960002030BD491C8142F1D3052090
:1056B00030BD002030BD00000C2B0020F8B50546A1
:1056C0000F4614462978012901D1687830B1208825
:1056D000821C9A4209D8012902D008E00720F8BDAF
:1056E00069780144891C994201D90C20F8BD181A27
:1056F000801E86B200962188B81C084469467DDF6A
:105700000028F3D12978022905D1BDF80000B04264
:1057100001D8092008E00820012904D16978B142A4
:1057200001D8009100E00096BDF80010FE2901D9D3
:105730000C20F8BD2288491CB9542188491C89B223
:10574000218078542088401C2080BDF80010084437
:1057500020800020F8BD10B50A8849888A4203D10C
:10576000FCF79AFD012010BD002010BD70B5044665
:105770000D4629462046FCF772FD18B1698820685D
:10578000084470BD002070BD08B501216A46FCF7D1
:10579000FFFD009808BD38B50446002500200090A4
:1057A0006846FDF7EBFE21686268086890420FD9F1
:1057B000401E08600178204600F02DF8054620685C
:1057C000217A0278891AC9B202798A4200D201711B
:1057D0009DF80000FDF7F4FE284638BDC268008A37
:1057E000891AB1FBF0F0C0B2704738B505460C46D7
:1057F000002000906846FDF7C1FE21462846FFF7CD
:10580000EDFF2A6811684B1C136008709DF80000BA
:10581000FDF7D6FE38BDC268008A01FB0020704744
:1058200010B5002806D0017A4268891AC9B2036807
:105830001A6006E00E2010BD03681A68541C1C6034
:105840001170491EC9B2F7D2006800210171002011
:1058500010BDC20800F007030120895C9840084091
:105860007047002803D0172903D0072070470E2067
:10587000704701800020704770B50546002D10D09C
:1058800029611720288068801B202871002405EBDF
:10589000C400801DFFF7AEFC641C002CF7D0002074
:1058A00070BD0E2070BD000070B502460C46958894
:1058B000002D43D11088232820D006DC102809D0E1
:1058C00011280CD0222822D11DE03A280CD05528CE
:1058D0001DD10EE01146204601F0A6FF17E011464B
:1058E000204602F053F812E01146204602F08EF8EE
:1058F0000DE01146204602F04FF808E01146204620
:1059000001F0CAFF03E01146204601F0E9FFA07A4A
:10591000002813D0E18828469EDF0246012052B1BC
:10592000112A0BD006490988BDE8704000EB014000
:10593000044901F06BBA0021A172E07270BD000051
:105940000C2B00207C94020000F1804000680028AD
:1059500000D00120704708B500F1804000210160AF
:105960000068009008BD000000B9704700BF00BF8C
:1059700000BF00BF00BF00BF00BF00BF00BF1F4986
:1059800009681F4A914200D130E000BF00BF00BF4C
:1059900000BF00BF00BF00BF00BF00BF00BF00BF0F
:1059A00000BF00BF00BF00BF00BF00BF00BF00BFFF
:1059B00000BF00BF00BF00BF00BF00BF00BF00BFEF
:1059C00000BF00BF00BF00BF00BF00BF00BF00BFDF
:1059D00000BF00BF00BF00BF00BF00BF00BF00BFCF
:1059E00000BF00BF00BF00BF00BF00BF01460139BC
:1059F000084600D0BBE700BFB7E70000FC2A002044
:105A00000024F40070B50025104C2078002801D047
:105A1000852518E00021A16061602161E1600C48EA
:105A20000068012610F0010F01D0012100E00021E3
:105A300019B90721002000F025F801F04BFD08B945
:105A4000044806602670284670BD0000842E0020A1
:105A500000E100E01805004008B50020009068460D
:105A6000FDF78CFD0648C168491EC160C06808B9D1
:105A7000FFF7ACFB9DF80000FDF7A2FD08BD00009C
:105A8000842E00204907090E002806DA00F00F02D4
:105A900002F1E02282F8141D03E000F1E02282F816
:105AA000001400F01F02012191404009800000F124
:105AB000E020C0F88012C0F800117047000B40B21F
:105AC000704700002DE9F04105468846284602F05F
:105AD00063F8244FD0B12846FEF798FE384490F87A
:105AE00058008009032807D001280DD0032128463B
:105AF000BDE8F04100F028BF284600F067FF08B17C
:105B00000321F4E70221F2E70221F0E7284602F040
:105B10004FF8002823D02846FEF778FE04464FF4BD
:105B2000807000EB840082B220460F4E06EB8000AE
:105B3000D0F8101541F00101C0F81015104600F022
:105B400085FFB8F1000F0AD02846FEF75FFE57F830
:105B50002000002803D00120A040C6F80403BDE8BF
:105B6000F0810000982E0020006000402DE9FC41EB
:105B70000C46054611460027DFF8A08008EB05001B
:105B800090F93000C017401C002801D0082741E0E0
:105B9000E2782846FEF710FE0646701C39D0A07841
:105BA00068B1019501A800F0F5FE019900EB8100B4
:105BB000D0F8001721F00201C0F8001707E0637861
:105BC0002846002100910A46019100F060FEE0782D
:105BD000B0B12178124800EB860000F5A26002689F
:105BE000104B1A4002604FF47C524FF4403302EAEB
:105BF000052203EA01410A4301680A43026009E001
:105C000008EB0600227810F8581F41EA8211017053
:105C100000E004273846BDE8FC810000982E0020F3
:105C200000600040FFC0FCFF10B500F0CFFE002870
:105C300000D0012010BD000070B5144D95F864002F
:105C4000002801D0082070BD0020411E2A1882F8CB
:105C50003010401CC0B23028F8D300242046FEF794
:105C60009DFD641CE4B20C2CF8D307210620FFF73D
:105C700009FF4FF4BE7000F0E9FE4FF00040044908
:105C80000860012085F86400002070BD982E002077
:105C900004630040034890F86400002800D001200D
:105CA00070470000982E00200121B1EB507F01D1F8
:105CB00001207047002070472DE9F84380460427F3
:105CC000124D00244FF001091BE0002000906846AF
:105CD000FDF754FC09FA04F62E420AD02046FFF7DD
:105CE00011FA30B90A4841683143416088F80040F0
:105CF00000279DF80000FDF763FC27B1B543641C45
:105D0000E4B2002DE1D13846BDE8F883FFFF010081
:105D10005C2A00202DE9F04107460D461646002D6D
:105D200013D0A6B100243846FFF723FA88B13846CD
:105D3000FFF7E8F978B1094800EBC700C0F8105543
:105D4000C0F814652046BDE8F0810E20FBE70E2068
:105D5000F9E70724F6E70824F4E7000000F0014023
:105D600070B5054600242846FFF7D8F968B12846E3
:105D7000FFF7FFF918B12846FFF7C4F938B1054914
:105D80000120A8400860204670BD0724FBE70824D6
:105D9000F9E7000008F5014070B5054600242846E3
:105DA000FFF7BCF968B12846FFF7E3F918B12846B8
:105DB000FFF7A8F938B105490120A840086020463E
:105DC00070BD0724FBE70824F9E7000004F5014053
:105DD00038B5044600252046FFF7CBF998B10120DD
:105DE00000FA04F409480460002000906846FDF7BA
:105DF000C5FB07484168A14341609DF80000FDF7DD
:105E0000DFFB284638BD0725FBE7000008F5014009
:105E10005C2A002004480178002901D085207047C1
:105E200001210170002070475C2A0020F0B500209D
:105E30003322134D2978002907D000242C701149F2
:105E4000114B1960002101260EE00820F0BD06FA72
:105E500001F3134205D0DFF834C00CEB8107C7F81B
:105E600000489A43491CC9B2002AF0D169686FF30F
:105E700010016960697821F033016970F0BD00009C
:105E80005C2A0020FFFF010008F5014000F00140FE
:105E90002DE9F04106460D461220264CC4F80803B1
:105EA0002549087C022819D00A7C0846A71590F8D5
:105EB0002E00012A18D00222C4F804234FF0010852
:105EC00081F810804E600D810022CA6038B34D8386
:105ED00091F82D10304601F027F929E01220C4F87E
:105EE00004031120BDE8F081CA6822B10220C4F881
:105EF00004031120F6E7CE600D8358B9384601F04F
:105F000059F90028FAD0384601F05CF929463046A4
:105F100001F00AF90220C4F804030020E2E7294650
:105F2000304601F001F9384601F04CF9C4F8008020
:105F30000020D7E700700040202F002070B50546F4
:105F40000C460E48017C002901D0112070BD00EBE9
:105F500045010A7F1AB910F82D2F521C0270E07902
:105F60000877207A48772146284601F0E5F8227A1A
:105F7000E179284601F014F9002070BD202F00209F
:105F80002DE9F04104461E4D95F82C00002802D062
:105F90000820BDE8F08109B114B102E00720F8E75C
:105FA000184C103545F8101C2078174908606078A7
:105FB000091D0860E078A87701262E770020287058
:105FC00068776860E8776FF00040104FC7F8080303
:105FD0004FF4827001F0F6F8300201F0F3F8A17886
:105FE0000720FFF74FFD0220C7F80403A87F10B178
:105FF0000120C7F804030448F03806600020C8E711
:10600000202F0020E0910200F07500400070004059
:10601000054890F82E00002801D0002000E0042060
:106020000249084470470000202F00200070004003
:1060300030B54FF480348C400568002B02D0C5F891
:10604000044301E0C5F80843006800EB8100C0F894
:10605000402530BD016801220A610079034900EB47
:10606000400001EB8000027270470000502F0020BA
:10607000016801220A600079034A00EB400002EB4C
:106080008000022101727047502F0020F0B4049E5E
:106090004FF480758D4001278F4004683D43D4F84C
:1060A0000072AF43C4F800720468D4F800521D4374
:1060B000C4F800523346F0BCFFF7BABFF8B5044647
:1060C0000D462079214900EB400001EB8006307A33
:1060D000002801D00820F8BD3AB1326068687060CD
:1060E000002000214FF4A0770AE00720F8BD2368C4
:1060F00007EB800292B299509A580092401CC0B2AD
:1061000062798242F3D82068000B40B2E978FFF749
:10611000B9FC69782068D0F8042561F30102C0F861
:106120000425A9782068D0F8082561F30102C0F899
:10613000082529782068D0F8102561F30302C0F8FB
:106140001025012030720020F8BD0000502F0020E3
:1061500030B503461868000B40B200F01F02012161
:1061600091404009800000F1E020C0F880111868DB
:106170004FF0FF31D0F800220024C0F80042186828
:10618000C0F808131879094D00EB400005EB8000BA
:10619000007A022802D11846FFF75CFF187900EB5D
:1061A000400005EB8000047230BD0000502F00203D
:1061B0002DE9F04105460E4617462879DFF858804C
:1061C00008EB4014E07E002802D00820BDE8F081F2
:1061D000707F207731462846FDF72EFA67603069D8
:1061E00020601FB1317F2846FEF71EFF287908EB9B
:1061F0004010007F20B128680821C0F8001503E096
:1062000028680421C0F800150020E0752076A075EC
:106210000121E176A076D9E7002F00202DE9F04199
:1062200005460F4690462879294E06EB4014207FFC
:10623000002803D03846FFF737FD78B100236068A7
:106240004FF404714FF4017270B1287906EB4010DD
:10625000007F30B12868C0F8081305E01020BDE8C1
:10626000F0812868C0F80823E07D90B1207E78B1E5
:10627000606858B1287906EB4010007F18B1286893
:10628000C0F8041302E02868C0F804231120E6E7F0
:10629000012373B1276184F81880287906EB401038
:1062A000007F68B1424639462846BDE8F04100F01B
:1062B0007DB884F81780E760002060762076ECE7F0
:1062C000424639462846BDE8F04100F01BB80000C0
:1062D000002F002070B50446094D207905EB4011D0
:1062E000087F00280AD1887E002807D1204601F0C7
:1062F0004FFE2179012005EB4111887670BD000029
:10630000002F00202DE9F05F04462749207901EB9A
:106310004015A87E002803D113B9204601F038FEAD
:10632000686838B120684FF40171C0F80413002088
:10633000BDE8F09F4FF4A2794946206801F053F977
:106340004FF4927A4FF4847B5146206801F046F96D
:1063500007465946206801F041F9804649462068C1
:1063600001F03CF9064648EA060858EA0708EBD06F
:1063700057EA060007D12946206801F08FFDE87D25
:10638000697E8842E0D80020E8750FB10320CFE78E
:106390000EB10F20CCE7A87E012110B1206801606A
:1063A000C5E720684160C2E7002F00202DE9F05FBB
:1063B00004460E461746984600254FF4887949460C
:1063C000206801F021F94FF4A27A5146206801F0CB
:1063D0001BF92068C0F83465C0F83875B8F1000FB3
:1063E00015D02068D0F8001241F02001C0F800124A
:1063F0002079DFF8608008EB4010406858B12068D1
:106400004FF40471C0F804132846BDE8F09F2068DB
:1064100001210160ECE74FF4927B4946206801F0CE
:10642000EEF807465146206801F0E9F8064659465D
:10643000206801F0E4F837430743EED022790021C9
:1064400008EB4212D17500B10325002EDCD00F25D8
:10645000DAE70000002F00202DE9F04704460F4640
:1064600090462079264E06EB4015287F002803D061
:106470003846FFF719FC30B1204600F089F820B10A
:106480001120BDE8F0871020FBE785F81680AF608B
:106490004FF00008A5F81480207906EB4015287FFE
:1064A00048B300264FF490794946206801F0ACF8D3
:1064B0004FF4AC7A5146206801F0A6F82068AA7D16
:1064C000A968C0F84415C0F84825206801218160FA
:1064D000686870B94946206801F091F8074651464E
:1064E000206801F08CF80743F4D000B10F2685F83E
:1064F00016803046C5E72046BDE8F04700F002B8F8
:10650000002F00202DE9F04705462049287901EBAE
:1065100040144FF000084FF48E773946286801F098
:1065200062F828684FF00109C0F8089021462868F1
:1065300002F049FA606830BB4FF480760EE03946CD
:10654000286801F04BF810B9A08AB042F7D1A08AB0
:10655000B04203D02146286802F035FAA08AA17D16
:106560008842ECD3A08AB04202D14FF00F0808E075
:106570003946286801F032F80028F9D02868C0F8B8
:106580000C900020A0754046BDE8F087002F002049
:106590000079044901EB4010807D002800D00120E3
:1065A00070470000002F00200FB408B503990029A0
:1065B00004D004AA00926A4600F00FF801B05DF81A
:1065C00014FB10B50446A268002A05D0D4E90403E0
:1065D000216898470020A06010BD2DE9FC410646C7
:1065E0000C461546002C75D014F8011B39B125292D
:1065F0000DD03046FEF79CF820780028F4D1307B8F
:10660000002867D03046BDE8FC41FFF7DABF002321
:10661000012021782B291DD02D2913D0302915D008
:1066200000200028F5D100222A2917D02178A1F1D5
:1066300030000A2818D2641C02EB820001EB4002F1
:10664000303AF1E743F00103641CEAE743F0020348
:10665000641CE6E743F00403641CE2E72868011DBC
:10666000296000680244641C002021782E290CD186
:10667000641C2178A1F130070A2F06D2641C00EBBC
:10668000800001EB40003038F3E76C290DD0682919
:106690000BD069291FD00BDC25295FD0582932D0B7
:1066A00063290ED064295DD115E0641C2178ECE7E4
:1066B00070293CD0732932D0752918D0782951D14E
:1066C00021E02868011D29600078C1B23046FEF73C
:1066D0002FF847E048E029680F1D2F600968CDE9D1
:1066E000002303460A223046FEF744FC3AE02968BC
:1066F0000F1D2F600968CDE9002303460A223046AA
:1067000002F0E6FB2EE029680F1D2F600968CDE935
:10671000002303461022304602F0DAFB22E028680C
:10672000011D29600168304601F0C4FF1AE02868A5
:10673000011D2960076830213046FDF7F9FF7821F7
:106740003046FDF7F5FF08210020CDE900100B468B
:1067500010223946304602F0BBFB03E025213046CB
:10676000FDF7E6FF641C47E7BDE8FC812DE9F04139
:10677000002805D0016819B1C969BDE8F041084792
:1067800000240C4E0C48851B14270CE004EB8400FD
:1067900006EB8000016829B1C969884710B1012062
:1067A000BDE8F081641CB5FBF7F0A042EED80020F4
:1067B000F6E700000000000000000000044801218E
:1067C0004174007A002801D00020704701207047F2
:1067D00058310020012801D0032808D104490022A3
:1067E0004A74012800D00020087401F05FBA704795
:1067F0005831002070B50446164D287A01281BD068
:10680000022825D10020144E022C316802D0032C1E
:1068100007D103E0084601F02DF902E0084601F037
:106820001BF948B100202872022C0BD00D213068D2
:10683000FEF742FA01F01EFA687C28B1BDE870400C
:1068400000F04EBE0021F2E7BDE8704001F02EBA24
:1068500070BD0000583100209C2A00202DE9FF4126
:106860000C46DDE90A7815461E46684600F084F8B5
:1068700044EA4501009A41EA860141EA072100EB1A
:10688000820041EA0841C0F80017BDE8FF812DE908
:10689000FF410C46DDE90A7815461E46684600F0C1
:1068A00079F844EA4501009A41EA860141EA072164
:1068B00000EB820041EA0841C0F80017BDE8FF8103
:1068C0002DE9FF410C46DDE90A7815461E4668466B
:1068D00000F06EF844EA4501009A41EA860141EA77
:1068E000072100EB820041EA0841C0F80017BDE82B
:1068F000FF811CB500220B46009211460192FFF762
:10690000DFFF1CBD1CB5002100910B460122019147
:106910001146FFF7D5FF1CBD202802D24FF0A04240
:1069200002E000F01F00074A02EB800000F5E06083
:10693000026822F440320260026842EA01410160CA
:10694000704700000003005013B50C46684600F085
:1069500021F8009900EB8102D2F8001721F44031B0
:10696000C2F80017009900EB8100D0F8001741EA47
:106970000441C0F800171CBD0168202902D24FF065
:10698000A040704701F01F010160014870470000FE
:10699000000300500168202902D24FF0A040704748
:1069A00001F01F0101600148704700000003005022
:1069B0000168202902D24FF0A040704701F01F016A
:1069C00001600148704700000003005001B56846AF
:1069D000FFF7E0FFD0F810050099C84000F0010073
:1069E00008BD01B56846FFF7E3FF009A0121914019
:1069F000C0F8081508BD38B50124002908D000905A
:106A00006846FFF7B9FF00998C40C0F8084538BDCB
:106A100000906846FFF7B0FF00998C40C0F80C4525
:106A200038BD00001CB5084B18CBCDE900346B46CF
:106A3000441805E053F82010D1F8101502C2401C8C
:106A40008442F7D81CBD0000D891020008B5034964
:106A50000844002101600068009008BD006000400B
:106A6000034908440068012800D000207047000056
:106A70000060004010B50446FCF752FE411C09D0EE
:106A80002072074AD2F8101429B149686160D2F81F
:106A900010144C6010BDC2F810440021616010BD9C
:106AA0007C3200207047FCF73FB8704708B5034AB6
:106AB00000924023024A00F005F808BD7B830200E3
:106AC0007C310020F0B593B00F46189E14461D4649
:106AD000384600F002FB18210DA8FBF7FCFC0D94D2
:106AE0000E9512960023082207A9384600F00FFBE6
:106AF000082609980A900898ADF82C0000208DF817
:106B00003000079800F00300012802D002281ED0B0
:106B10003EE00798850A0798C0F3C2008DF82E0062
:106B20000798C0F380008DF82F000798C0F38314F6
:106B3000A200334601A9384600F0E9FA0DA80090FA
:106B40000AAB224601A9284600F020FA20E0079867
:106B5000840D0798C0F3C2008DF82E000798C0F38B
:106B600080008DF82F00082C01D2254600E0082572
:106B700033462A4605A9384600F0C9FA2E44641B5C
:106B80000DAB0AAA294605A800F050F9002CEAD15D
:106B9000384600F0ABFA13B0F0BD00000A4A02EB31
:106BA000C000012907D0022907D0032907D00429F2
:106BB00007D00020704702207047042070470079FA
:106BC0007047407970470000409B020010B5FFF706
:106BD0006AFF04210348FFF74DFF02490120487274
:106BE00010BD0000A42A00202DE9FF5FFDF7ACFDD9
:106BF00018B1002004B0BDE8F09FDFF8008200204B
:106C0000C8F81804BFF34F8FD8F80440D8F80850DC
:106C100004EA050008EB80000C300026B1460AE0CB
:106C2000641CC0F3891101EB9050044404EA050090
:106C300008EB80000C3000688107F1D0002001AA29
:106C40002146641C294008EB8101C96842F82010E4
:106C5000401C0228F4D3019800F00300022806D05B
:106C6000012861D00198C04380077DD096E001984B
:106C70004FEA905A01985021B1EB905F01D95746E5
:106C800000E05027019867F39F50019007F1080139
:106C90005B4800F0D6F9064630007FD000F01DFAC0
:106CA0004B46082201A9304600F037FA09F10809DD
:106CB00004EA0501681A401C8000874227D94F4D1D
:106CC0000C35002804D008EB810101F10C0100E033
:106CD000294601D0024600E03A4602F0FF0B01D1FE
:106CE0004FF0000502D0A7EB000001E04FF00000DC
:106CF000C7B24B465A46304600F00FFA09EB0B0379
:106D00006DB13A462946304600F007FA07E008EB35
:106D100081010C314B463A46304600F0FEF90AF14B
:106D2000030A04EB9A0439E00198C0F383100628A3
:106D300000D30620019960F3891101910198C0F3F5
:106D40008310801C81002E4800F07BF9064630003D
:106D500024D000F0C2F94B46082201A9304600F0C9
:106D6000DCF909F1080900E015E000270DE02046F4
:106D7000284008EB8001641C0C314B46042230464D
:106D800000F0CBF909F104097F1C0198C0F38310CE
:106D9000B842ECD802E0D8F8180448B146B3D8F8A5
:106DA0001054D8F8180480B1304600F09FF91FE065
:106DB00000201FE70020697A01B1012020B1284698
:106DC00031460268126890476D68002DF2D1304656
:106DD00000F08CF9002000906846FCF7CFFBD8F853
:106DE000180408B9C8F804409DF80000FCF7E8FB57
:106DF000FDF7AAFC80F00100FCE600007C320020D8
:106E00003C93020000231A4601F00CBC08B5009226
:106E100001236A4601F006FC08BD1CB500920193EF
:106E200002236A4601F0FEFB1CBD00002DE9F0477D
:106E300007460E4692469846082E3CD898F80C9085
:106E4000002088F80C004146504600F0E5FE002482
:106E5000B44205D23A5D19A14046FFF7A5FB03E015
:106E600018A14046FFF7A0FB641C082CF0D316A124
:106E70004046FFF799FB0024B4420ED23D5DFBF77C
:106E80000DFB0068405D10F03E0F00D12E252A4614
:106E90000EA14046FFF788FB03E00DA14046FFF737
:106EA00083FB641C082CE7D301224146504600F0C6
:106EB0008BFE88F80C90BDE8F0870000202530326A
:106EC00078000000202020007C00000025630000E6
:106ED0002000000010B51148FF21816000210160F1
:106EE0004160C0F81814C0F8141480F81C140C4841
:106EF00000F0FAF800280FD10A480B49401AC208DE
:106F000000200A4B05E000EB400103EB8101088003
:106F1000401C9042F7D3002010BD00007C320020BE
:106F20003C930200B09B0200409B02000C2B00200F
:106F300002480349401AC00870470000B09B020095
:106F4000409B020013B56846FEF79AFB08B100208B
:106F50001CBD0348009900EBC10000681CBD000087
:106F6000409B020070B50848D0F81044012580F815
:106F70001C5405E0657220460168496888476468CA
:106F8000002CF7D170BD00007C3200202DE9FF47B6
:106F900007460C9D0C46914698462E7B0020287390
:106FA0002946404600F038FEB9F1070F41D2DFE82C
:106FB00009F004090F151D27330039462846FFF74D
:106FC000F3FA36E0394628462268FFF7EDFA30E05A
:106FD0000CCC39462846FFF7E7FA2AE0A068009073
:106FE0000CCC39462846FFF7DFFA22E0D4E902014B
:106FF000CDE900010CCC39462846FFF7D5FA18E058
:10700000D4E90321A068CDE9012100900CCC3946D8
:107010002846FFF7C9FA0CE0D4E90223D4E90410AA
:10702000CDE90210CDE900230CCC39462846FFF704
:10703000BBFA00222946404600F0C6FD2E73BDE88B
:10704000FF872DE9F04107463D8A2D1F4819C01CD6
:10705000B0FBF5F000F0FF083846FEF79CFB044655
:1070600020000AD00020207101206071E5802646B2
:10707000A8F10108376000250DE00020BDE8F0818F
:107080003846FEF788FB50B16179491C6171306068
:10709000076006466D1C4545F2D32046EEE72046C4
:1070A00000F002F80020E9E72DE9F04101464D79B2
:1070B0000A466B1E002001E01268401C9842FBD378
:1070C0001768002405E00E683846FEF78EFB31464F
:1070D000641CAC42F7D3BDE8F08108B5001D012166
:1070E0006A46FBF72EF908BDFEF79ABB1CB50446AD
:1070F000201D01216A46FBF731F9009801909DF8A7
:107100000400002802D12046FFF7CEFF1CBD38B591
:1071100001240094FEF774FA38BD38B500240094B9
:10712000FEF76EFA38BD0000024A1060101D0160C3
:10713000704700002C76004010B50A784B78302458
:1071400002F0030204EA03131A438B784FF4E0645D
:1071500004EA03231A43CB784FF4805404EA033340
:107160001A430B794FF4E02404EA03431A434B79A2
:107170004FF4801404EA03531A438B79240104EA80
:1071800003631A4303010548184400F5A2608260B6
:10719000CA79097A4160026010BD000000700040A9
:1071A000030103481844C0F81425C0F810157047AF
:1071B0000070004002494058002800D0012070476C
:1071C0000070004008B503490022084402600068CE
:1071D000009008BD00700040002804D003490968F1
:1071E0000160002070470E2070470000C893020025
:1071F000FEB502460C462046FFF7EEFF00286BD195
:1072000000250095019502958DF8002001278DF845
:1072100002700320ADF8040069462020226869DF6F
:107220002E4E40B100F0D0F9024630882C4907EBD1
:107230000040FFF7EBFD0095019502958DF8007079
:107240008DF801508DF8025069464020226869DFB0
:1072500040B100F0B9F902463088224907EB0040FE
:10726000FFF7D4FD0095019502958DF800706946F1
:107270000120226869DF40B100F0A6F9024630889B
:10728000194907EB0040FFF7C1FD019502954FF446
:10729000B06000906946A120226869DF40B100F02B
:1072A00093F902463088114907EB0040FFF7AEFD25
:1072B0000095019502958DF800506946A02022683E
:1072C00069DF40B100F080F902463088084907EBD9
:1072D0000040FFF79BFD0020FEBD00009C2B00201E
:1072E000109A0200589A020070990200BC9902009C
:1072F0001C9902002DE9F04104462668204660DF13
:1073000005462368124FB34212D038884FF0020866
:1073100008EB004032460FA1FFF77FFD00F0FAFCBA
:107320002168421A388817A108EB0040FFF76EFD6C
:1073300055B1284600F048F902463888012101EB92
:10734000004019A1FFF762FD2846BDE8F08100006A
:107350009C2B002052414D20737461727473206124
:107360007420307825782C2063616E20626520615E
:10737000646A757374656420746F20307825782E84
:107380000000000052414D2073697A652063616EF0
:107390002062652061646A757374656420746F206F
:1073A000307825782E00000073645F626C655F653D
:1073B0006E61626C6528292072657475726E6564F1
:1073C0002025732E0000000030B593B038240494BB
:1073D00004A905A861DF30B1052816D013B0BDE8B7
:1073E0003040FBF789BF05AD094901A800F0A6F8B8
:1073F00007E003990A6849682846904701A800F009
:10740000B7F803980028E2D0F3E713B030BD0000CE
:10741000CC93020010B50E4C2078002814D0012027
:10742000A07000F0F7FE112810D0022000F00AFF33
:1074300011DF002807D12070A07001F081F803202F
:1074400000F000FF002010BD082010BD002010BD7E
:10745000F82A002038B5124C2078002801D00820E6
:1074600038BD0125A570002000F0D4FE112814D0ED
:10747000002000F0E7FE0B48006800900A496846CB
:1074800010DF0028ECD12570A070607001F078F852
:10749000012000F0D7FE002038BD002038BD0000DC
:1074A000F82A002060930200813202000EB50849DC
:1074B000684600F043F806E0029801684068884793
:1074C000684600F055F802980028F5D10EBD00007E
:1074D0007C9302000148007870470000F82A0020E1
:1074E00005488178002903D0007818B1FFF792BFD2
:1074F00008207047FFF7AEBFF82A00201FB503A889
:1075000048DF30B1052815D004B0BDE81040FBF7C6
:10751000F3BE0949684600F011F807E002980268D6
:10752000416803989047684600F022F802980028C6
:10753000E5D0F3E71FBD0000E89302000160096891
:107540004160AFF3008010B502680CE0002181605B
:1075500010BDD1E90034A34203D0416809688160BD
:1075600010BD08314160416853689942F1D1EDE79F
:10757000816800290BD002689268114481604268DA
:107580005368994203D108324260FFF7DCBF70476D
:1075900010B50C4A02F1F0030EE0991AC91001EB84
:1075A000D171491002EBC1010C68844201D90B462C
:1075B00002E005D201F108029A42EED3002010BD8C
:1075C000486810BD4092020000B5FFF7E1FF0028B7
:1075D00000D1014800BD00002C9202004058002854
:1075E00000D00120704708B500224250405800905A
:1075F00008BDD0F80403084000D00120704740586F
:10760000002800D00120704708B5002242504058A1
:10761000009008BD2DE9F0410446207800284AD1A9
:10762000264D032626A1288806EB0040FFF7EAFB3B
:10763000A0684078A0283ED100F00AFDA0688078BC
:107640000746FDF773FF804639464046FAF743FF89
:10765000A1683A46C91C4046FAF724FF288898F8E2
:10766000002006EB004023A1FFF7D0FB3A460021A3
:107670004046FAF74BFF214CE0602988024606EBB2
:1076800001431FA11846FFF7C1FB00F047FDE0686A
:1076900000F0FAFC288821A106EB0040FFF7B2FBBE
:1076A00000F0E4FCFFF7A0FA0028FBD14046BDE85B
:1076B000F041FDF787BBBDE8F0810000842B00207E
:1076C00052656365697665642064617461206672E1
:1076D0006F6D20424C45204E55532E2057726974D1
:1076E000696E672064617461206F6E205541525449
:1076F0002E0000002530327800000000182A0020FB
:107700004368616E67696E67206672657175656E44
:10771000637920746F203A20256400005265656EFD
:1077200061626C696E67000010B500280AD00328FA
:107730000CD10220FCF722FE002807D0BDE8104043
:10774000FBF7DABDBDE8104000F0E1BE10BD00005F
:107750000078002807D104483B21C08876DF002844
:1077600001D0FBF7C9BD7047182A002070B5054647
:10777000AE883046FDF7EAFB0446002C10D04FF6E9
:10778000FF7340F2F31205F1080104F10A00FDF75E
:10779000CAFC607221463046BDE87040FDF70EB964
:1077A00070BD00002DE9F0410546E87BAE88012858
:1077B00029D14FF6FF773846FDF7C8FB0446ECB1F8
:1077C00026800020207211480168C4F80A10406821
:1077D000C4F80E003B4640F2F31205F1100104F12B
:1077E0000A00FDF7A0FC60720948C08900280AD190
:1077F00021463046BDE8F041FDF7E0B8BDE8F04174
:10780000042000F0A3BDBDE8F0810000542A002050
:10781000B02D0020898881827047CA7B012A02D15D
:107820008988A0F8C810704770B505468E8805EBAA
:10783000C604A41D2879A071C87B012802D00228A3
:1078400005D102E02888208001E068882080218816
:10785000608881420DD930469EDF0246012092B1F8
:10786000112A12D00A49098800EB01400949FFF7A3
:10787000CDFAA079E179884209D929463046BDE898
:107880007040FDF7DDB86071F3E72071F1E770BD7E
:107890000C2B00207C94020010B590B004463422DA
:1078A000091D03A8FAF7FEFDBDF80C00BDF8102075
:1078B00004EBC0014A732269002A0DD0074A5369BC
:1078C0001269CDE90123ADF80600487B8DF8080068
:1078D000226901A92046904710B010BDA091020076
:1078E0001CB5002200920192091D0A8800EBC20219
:1078F0000879127B824200D21046ADF80000ADF844
:10790000020008880022694690DF0246002A07D05C
:1079100004480121008801EB00400349FFF776FA93
:107920001CBD00000C2B00200495020010B58088BF
:10793000FDF70CFB0446002C08D06068FBF78CFDBB
:1079400008B100F003FD4FF6FF70208010BD4FF628
:10795000FF718182704710B50446002084F8D4007E
:107960008888B4F8C81088420FD1207900280CD13B
:1079700001212046FCF78DF8002806D0D4F8D0105D
:10798000002902D0BDE81040084710BD898800EBEF
:10799000C100801DFDF72EBC7CB505468E88C888C9
:1079A00005EBC604A41D172800D2172021888142A8
:1079B00000D8084660800020207121883046ADDF65
:1079C00002463AB10E480121008801EB00400D4902
:1079D000FFF71CFA6079002810D1286900280DD023
:1079E0000948C1688068CDE90001ADF8026060888F
:1079F000ADF804002A696946284690477CBD00001E
:107A00000C2B0020C0940200A09102001CB58A88B3
:107A1000498900EBC204A41D23888B4200D8194673
:107A20006180172900D217216180016969B16179EC
:107A300059B108490AC9CDE90013ADF8022061889F
:107A4000ADF804100269694690470020607120710A
:107A50001CBD0000A09102000549C868401CC86018
:107A6000082803D90020C860012070470020704713
:107A70005831002010B5104A0021D1600179002949
:107A800002D0012916D10DE0D0E90523D11A4FF417
:107A90008054A14200D3214619448161914209D109
:107AA000012010BD0169491C01614069814201D179
:107AB000012010BD002010BD5831002010B5044633
:107AC000087A00280FD1E078FBF733FB0146204607
:107AD000FBF7DFFF002806D0D4F8D010002902D031
