:020000040002F8
:10200000807D0020E9230200F1230200F323020077
:10201000F5230200F7230200F9230200000000006C
:10202000000000000000000000000000FB23020090
:10203000FD23020000000000FF2302000124020033
:10204000DD27020003240200AD2A0200032402005F
:10205000BD28020003240200B5250200032402006B
:1020600003240200032402000324020003240200CC
:1020700003240200032402000324020003240200BC
:102080000324020035280200032402000324020076
:10209000CD28020003240200D128020003240200FC
:1020A000032402000324020003240200032402008C
:1020B00003240200032402000000000000000000CE
:1020C000032402000324020003240200032402006C
:1020D000032402000324020003240200032402005C
:1020E0000324020003240200032402000000000075
:1020F000000000000324020000000000032402008E
:1021000000000000000000000000000000000000CF
:1021100000000000000000000000000000000000BF
:1021200000000000000000000000000000000000AF
:10213000000000000000000000000000000000009F
:10214000000000000000000000000000000000008F
:10215000000000000000000000000000000000007F
:10216000000000000000000000000000000000006F
:10217000000000000000000000000000000000005F
:10218000000000000000000000000000000000004F
:10219000000000000000000000000000000000003F
:1021A000000000000000000000000000000000002F
:1021B000000000000000000000000000000000001F
:1021C000000000000000000000000000000000000F
:1021D00000000000000000000000000000000000FF
:1021E00000000000000000000000000000000000EF
:1021F00000000000000000000000000000000000DF
:10220000DFF80CD000F098F900480047CD4C0200F0
:10221000807D002030B4044654E8000F0D4644E8A9
:102220000053002BF8D1156030BC704730B4044621
:1022300054E8000F40EA010544E80053002BF7D1B1
:10224000156030BC704730B4044654E8000F00EA13
:10225000010544E80053002BF7D1156030BC7047EE
:1022600030B4044654E8000F80EA010544E8005306
:10227000002BF7D1156030BC704730B4044654E8E9
:10228000000F00EB010544E80053002BF7D1156067
:1022900030BC704730B4044654E8000FA0EB010591
:1022A00044E80053002BF7D1156030BC70470000A4
:1022B00030B4044654E8000F0D4644E80053002BA8
:1022C000F8D1156030BC704730B4044654E8000FB4
:1022D00040EA010544E80053002BF7D1156030BCFB
:1022E000704730B4044654E8000F00EA010544E8A2
:1022F0000053002BF7D1156030BC704730B4044652
:1023000054E8000F80EA010544E80053002BF7D1A0
:10231000156030BC704730B4044654E8000F00EB41
:10232000010544E80053002BF7D1156030BC70471D
:1023300030B4044654E8000FA0EB010544E8005314
:10234000002BF7D1156030BC7047000030B4044654
:1023500054E8000F0D4644E80053002BF8D11560F7
:1023600030BC704730B4044654E8000F40EA010521
:1023700044E80053002BF7D1156030BC704730B4EF
:10238000044654E8000F00EA010544E80053002B1E
:10239000F7D1156030BC704730B4044654E8000FE4
:1023A00080EA010544E80053002BF7D1156030BCEA
:1023B000704730B4044654E8000F00EB010544E8D0
:1023C0000053002BF7D1156030BC704730B4044681
:1023D00054E8000FA0EB010544E80053002BF7D1AF
:1023E000156030BC7047000006488047064800472B
:1023F000FEE7FEE7FEE7FEE7FEE7FEE7FEE7FEE7B5
:10240000FEE7FEE7E5280200012202002DE9F05F69
:102410000546002092469B46884606468146402453
:102420001BE0284641464746224600F075F85346D1
:102430005A46C01A914110D311461846224600F060
:102440005CF82D1A67EB01084F4622460120002157
:1024500000F053F817EB00094E41201EA4F10104CF
:10246000DFDC484631462A464346BDE8F09F00007F
:1024700000487047C083020040EA01039B0703D075
:1024800009E008C9121F08C0042AFAD203E011F8B3
:10249000013B00F8013B521EF9D27047D2B201E075
:1024A00000F8012B491EFBD270470022F6E710B559
:1024B00013460A4604461946FFF7F0FF204610BDB2
:1024C000421C10F8011B0029FBD1801A704730B55F
:1024D00004460020034600E05B1C934203D2E05C0C
:1024E000CD5C401BF8D030BD034611F8012B00F83D
:1024F000012B002AF9D118467047202A04DB203A24
:1025000000FA02F1002070479140C2F1200320FA46
:1025100003F3194390407047202A04DB203A21FA44
:1025200002F00021704721FA02F3D040C2F12002EC
:102530009140084319467047064C074D06E0E06895
:1025400040F0010394E8070098471034AC42F6D3FA
:10255000FFF75AFEAC8A0200CC8A020070B58C18D4
:1025600010F8015B15F0070301D110F8013B2A11A7
:1025700006D110F8012B03E010F8016B01F8016B94
:102580005B1EF9D12B0705D40023521E0DD401F890
:10259000013BFAE710F8013BCB1A921C03E013F859
:1025A000015B01F8015B521EF9D5A142D8D300208E
:1025B00070BD00002DE9F04F89B00025A846CDF888
:1025C0001C80CDF820804FF4807901240026684FCC
:1025D000484603F07BFC38B1D7F80403204018B11B
:1025E000484603F069FC2543640009F104091FFA19
:1025F00089F9761C082EEBD34FF4BE74204603F005
:1026000065FC48B1204603F057FC45F0004507AA99
:102610000221002003F03CFCDFF8589115F0FF0F79
:1026200015D0012600242E420DD007EB8401D1F8ED
:102630001005C0F30520D1F81015C1F3014159F878
:10264000242002B190477600641C082CEBD3002DA7
:1026500073DACDF81480CDF818800020411E0DF1FA
:102660000C0848F82010401C0228FAD3002400254A
:1026700009EB050010F8606F26F0C00B90F9000020
:10268000401C45D003A9584602F001FDF0B3B6093D
:10269000584601F023FD59F820700FB9032E37D1A9
:1026A000032E0CD105A84FEADB010BF00702435CB7
:1026B0004FF0010C0CFA02FC43EA0C034354CDF832
:1026C00008B002A803F09CFB029900EB8100D0F84F
:1026D0000007C0F3014A07A9584602F0D8FC10B120
:1026E000BAF1020F03D088B9BAF1030F10D1032E4B
:1026F00008D1BAF1020F21D00221584603F05AFB4B
:10270000641CE4B217B13146584600E000E0B84717
:102710006D1C042DACD334B3012501AA0221002085
:1027200003F0B6FB002007A901AA51F8206052F877
:102730002030B34204D0002505E016E00321DCE799
:10274000401C0228F1D30DB100240CE0002005ABA1
:1027500052F8205041F8205053F8205048F82050AB
:10276000401C0228F4D3002C80D109B0BDE8F08FC2
:1027700000600040D033002000F01F020121914092
:102780004009800000F1E020C0F88012704700F09E
:102790001F02012191404009800000F1E020C0F8B3
:1027A0000011704700F01F02012191404009800094
:1027B00000F1E020C0F8001270474907090E002818
:1027C00006DA00F00F0000F1E02080F8141D7047D9
:1027D00000F1E02080F80014704700002DE9F0417E
:1027E0004FF48077384602F0CFFC0124104EA50745
:1027F00048B1384602F0CFFC0120C5F808037470D8
:10280000002001F097FC4FF48277384602F0BCFCC0
:1028100000280BD0384602F0BEFC0220C5F80803A1
:10282000B470BDE8F041012001F084BCBDE8F08146
:10283000BC33002004480021016441648164C16408
:102840000160416005F0D6B80011014000F03EB9CA
:1028500070B50E461446184900EB400001EBC00568
:1028600018356869002806D0012811D002281BD02D
:102870000024204670BD284600F05CF9A04201D239
:102880000024F6E722463146284600F08DF9F0E7AD
:10289000284600F04FF9A04200D2044622463146B5
:1028A000284600F081F9E4E722463146284600F048
:1028B0004DF90446DDE70000F43A002002494FF0EC
:1028C000402004F0B3BE00005834002004F0C6BF1E
:1028D00004F04CB802490148086070470090D003EA
:1028E000382D002070B501F06CFE002420B1604846
:1028F000046044605F48046001F07CFE002855D00D
:102900005D4800685D4908605B48001D0068091D5E
:102910000860594808300068091D086056480C30A6
:102920000068091D0860544810300068091D0860DF
:10293000514814300068091D08604F48183000687D
:102940004E49203108604C481C300068091D086061
:10295000494820300068091D086047482430006855
:10296000091D0860444828300068091D0860424875
:102970002C300068091D08603F48303000683F492E
:10298000403108603C4834300068091D08603A480E
:1029900038300068091D086037483C300068091D60
:1029A0000860354840300068091D086001F03BFEB2
:1029B00010B134493248086001F0C3FD10B132490A
:1029C000FB20086001F0CAFD30B130480278304881
:1029D000016862F30301016001F0CDFD18B12D49DA
:1029E0004FF40070086001F0D3FD30B12A4801684F
:1029F000C90702D06FF0010101602848016841F465
:102A000070010160BFF34F8FBFF36F8F4FF0102243
:102A1000D2F80002002803DBD2F80402002823DAEF
:102A20001F4B012018601F4801680029FCD01225A7
:102A3000C2F8005201680029FCD0C2F804520168B3
:102A40000029FCD01C6001680029FCD0BFF34F8F27
:102A500012487C380168144A01F4E06111430160B6
:102A6000BFF34F8F00BFFDE7BDE87040FFF732BFF7
:102A70000C010040380500400404001020C500404F
:102A8000488103008C56004018F5004058020010A1
:102A9000E40E0040409602400004004088ED00E053
:102AA00004E5014000E401400400FA050548017F07
:102AB0000548002902D0034905F099B9014905F0FC
:102AC00003B90000383400200020004010B5124C3B
:102AD00002202061606111A0A06104F17800E06132
:102AE0004FF4007020620021A1626162E1620BA0DC
:102AF000A06404F51E70E06410202065A165616586
:102B0000E16509A1E01DFFF7EFFC08A12046FFF7F2
:102B1000EBFC2020A07110BDF43A00205465726DCA
:102B2000696E616C000000005254540053454747E1
:102B3000455200000169C268914204D88068801A39
:102B40000844401E7047881A401E70472DE9F04720
:102B50000546894617464FF00008EC682869A042F0
:102B600002D9061B761E03E0A968201A0E1A761EEB
:102B7000A868001BB04200D80646BE4200D33E46BD
:102B80006868324620444946FFF776FCB044B144B9
:102B9000BF1B3444A868A04200D10024EC60002F81
:102BA000DCD14046BDE8F0872DE9F0410446884677
:102BB0001646E768A068C51BE1686068B54208442E
:102BC00007D932464146FFF757FCB819E060BDE827
:102BD000F0812A464146FFF74FFC761B08EB0501C2
:102BE00032466068FFF748FCE660F0E702E008C89C
:102BF000121F08C1002AFAD170477047002001E077
:102C000001C1121F002AFBD17047000001212028BA
:102C100007DA81400848014201D0012070470020B6
:102C20007047402806DA2038814001D001207047E3
:102C30000020704701207047FC06FFBD10B501223F
:102C40000221002000F0D0FF08B1072810D1072290
:102C50000221012000F0C8FF08B1072808D1002197
:102C60000A22084600F0C0FF08B1072800D1002062
:102C700010BD022000F08ABE70B50024064D06E0AB
:102C80006868012110F8340002F034FB641C2878D5
:102C90008442F5D3002070BDA02C0020F8B5054675
:102CA0000C461646052E01D20720F8BD02F00AFC9C
:102CB00018B902F0D9FB0028F7D11048456004701C
:102CC00086600021C16001610D4E0DE005EBC4007E
:102CD0007168009181788DF801100078094A694681
:102CE00002F05CFB0028E0D1641EE4B2EED2BDE845
:102CF000F840054A0021024800F080B8A02C0020CE
:102D000018810200B94702003D43020003F08CFB2A
:102D100003F0A0F90028FBD1104C0121208801EB21
:102D200000400FA103F0A4FA10480068C00700D0CB
:102D300000BE2188022000EB01400DA103F098FAAB
:102D4000BFF34F8F0948E43801680D4A01F4E06190
:102D500011430160BFF34F8F00BFFDE7B02D00208E
:102D6000466174616C206572726F7200F0ED00E074
:102D700053797374656D207265736574000000008B
:102D80000400FA050EB500210091019102906A46F7
:102D900044F20100FFF7BAFF0EBD10B58268C368A8
:102DA0009A1A002A03D001F06FFC002010BD052004
:102DB00010BD002905D012B1531E134203D00920C3
:102DC00070470E2070470160838000218160C160E0
:102DD0000020704710B58268C3689A1A83889A42A7
:102DE00003D801F05BFC002010BD042010BD0000E2
:102DF0000148006870470000041501400B4B9B78A8
:102E0000002B06D03AB140B10068037C3BB10820EA
:102E1000704708207047072070470720704700233D
:102E20000374417442610020704700009034002018
:102E300010B504F0DDF90E490020087048700B222F
:102E40008A700C4C6060207060701420FFF794FC56
:102E500007211420FFF7B1FC1420FFF798FC002095
:102E600004F0A4F904480068A060002010BD000030
:102E700090340020B42C00200415014013460D4A64
:102E80009278002A05D0020005D0052905D2072036
:102E90007047082070470820704742692AB1427C79
:102EA000012A04D0002204F057BD082070470A46CA
:102EB000F9E700009034002008498978002908D0FB
:102EC000010008D0416931B100210174022104F0F0
:102ED00071BD082070470820704700009034002022
:102EE00070B50A4EB47801460948FFF756FF05460B
:102EF0004CB10020B070711C0122C81D02F020FCF2
:102F000008B1FFF73FFF284670BD0000C82C002025
:102F10009C350020F0B589B004460D461F46294E69
:102F20007260002D1BD0A888296882B22648FFF75E
:102F300040FF002814D1A889A96882B22248103025
:102F4000FFF737FF00280BD12022204901A8FFF707
:102F500093FA60690790207C20B1012003E00720EC
:102F600009B0F0BD00208DF818008DF82070607C4D
:102F700008B10E2000E000208DF81900E0680390F1
:102F8000A068049020680290606801900D48104A83
:102F900001A9083002F09EFB0028E1D1B070206842
:102FA000401C0DD09DF8210018B90648083002F0E9
:102FB00023FC04490122491CC81D02F0C1FBCFE7D4
:102FC0000020CDE7C82C00209C3500202081020085
:102FD000D97B020030B5EFF3108372B60B4A9468C8
:102FE0000121002C04D00170002B00D162B630BD4D
:102FF000916007490D68074C254015600C604C68CE
:1030000054604A174A6000210170EDE7BC3500208A
:1030100080E100E0FC06FFBD09498A68002A0ED065
:1030200000280CD1EFF3108072B60B68054A1360CC
:103030004B68536000228A60002800D162B6704756
:10304000BC35002000E100E070B505460C46206864
:10305000411C04D002F0FBFE206802F088FE60688C
:10306000411C02D0002102F079FE28792C4901EBA5
:103070004010007F48B32868A169C0F82415607D1E
:10308000227D29681043C1F86C05D4E90012286834
:10309000C0F80C15C0F81425207D012814D1A068B3
:1030A000411C02D0002102F059FEE068411C04D00E
:1030B00002F0CDFEE06802F05AFED4E90221286851
:1030C000C0F80815C0F8102570BD2868A169C0F8BF
:1030D0002415617D227D28681143C0F86C15D4E960
:1030E00000122868C0F81425C0F80C15207D0128AE
:1030F000EAD1A068411C02D0002102F02FFEE06856
:10310000411C04D002F0A3FEE06802F030FED4E9D6
:1031100002212868C0F80815C0F8102570BD00000D
:103120003834002010B500200A49D1F81044214657
:10313000012205E00B7A834201D1002202E04968B6
:103140000029F7D1002A03D1401C0A28EFDB501ECA
:1031500010BD0000D4360020002805D004490A78AC
:1031600022B1496804F006B80E2070470820704765
:10317000902C00200246002A07D005490020C86094
:1031800001230B7088604A6070470E207047000072
:10319000902C002070B50446002C36D0002934D085
:1031A0001A480078002830D00D462088112815D004
:1031B000302804D0322807D0332813D109E0211D4C
:1031C000284603F0B3FE0DE0211D284603F090FCD5
:1031D00008E0211D284603F0A3FD03E0211D284639
:1031E00003F014FE95F8C80200280ED0208830287D
:1031F0000BD34F2809D8A088B5F8CA12884204D149
:103200002846BDE8704001F031B970BD902C002017
:10321000002809D0084A137843B1D26842B190F827
:10322000C7223AB1112070470E207047082070471E
:103230000820704701F01AB9902C00202DE9F043C6
:1032400087B00546291D2888AB4E03271D2828D0A6
:1032500017DCA94A4FF003031028128803EB02423F
:103260007ED013287DD01B287CD1087902287AD003
:10327000032877D107B01046BDE8F0439FA102F0C4
:10328000F7BF1F2870D03B286FD056286AD1A88876
:10329000132176DF002865D007B0BDE8F043FFF7C3
:1032A00071BD0C1D9D4DE8784FF0010850B385F8B5
:1032B000048021469A4801F086FB002852D085F808
:1032C0000480974A01230C3202F1080120468CDF6A
:1032D000002847D121796079E278CDE90021029078
:1032E0003088A378627807EB00408EA102F0DFFF00
:1032F000002000F09DFC002834D007B0BDE8F0436A
:10330000FFF740BD2146864801F05DFB4FF0000904
:1033100060B3286920283ADA641C60792179E27860
:10332000A378CDE90210CDE90032308863782278A5
:1033300007EB004087A102F0C9FF20680590A08834
:10334000ADF818008DF81A908DF81B90734805A9F8
:10335000203001F0D9F80446704805A91C3006E079
:1033600082E0A8E054E09DE0B1E0BAE00FE001F0B7
:10337000CBF804B128B9308880A107EB004002F0F7
:1033800077FF2869401C2861E868401CE8602869CC
:10339000202812DB287980B96048203000F068FFCF
:1033A00004465E49072224312046FFF790F830B3E7
:1033B0005A482146203001F0A7F82879002827D064
:1033C000308870A107EB004002F052FF686ACDF828
:1033D0001500288DADF819009DF8140020F0FE00AE
:1033E000801C20F001008DF814004D4A01230C329E
:1033F00002F1080105A88CDF68B100242EE02068E6
:103400006862A0882885A07985F82A0085F804805C
:1034100007B0BDE8F0839DF81A009DF819109DF8DB
:1034200018209DF81730CDE90032CDE90210308820
:103430009DF816309DF8152007EB004039A102F0E9
:1034400045FF002000F0F4FB0028E1D0FFF79AFCD4
:10345000DEE73248203000F00BFF641C286984420C
:10346000F7DBC5F81090D3E7104649A102F000FF42
:10347000A98800224B4800F059F908B1FFF782FCF7
:10348000072000F0D5FB08B1FFF77CFC2348A98892
:103490003430FFF7BDFE0028BAD007B0BDE8F043D6
:1034A000FFF770BC104640A102F0E2FE07B0BDE895
:1034B000F04303F0F1BE0023A8881A4685217FDF80
:1034C0000028A5D007B0BDE8F043FFF75BBC31F89A
:1034D000040B75DF00289BD007B0BDE8F043FFF771
:1034E00051BCA888132176DF002891D007B0BDE831
:1034F000F043FFF747BC0000B02D0020436F6E6E15
:10350000656374696F6E205265717565737420749C
:10351000696D6564206F75742E00000078290020A5
:10352000D47F0200436F6E6E656374696E672074AA
:103530006F207461726765742025303278253032CF
:10354000782530327825303278253032782530327F
:1035500078000000466F756E642074617267657450
:1035600020253032782530327825303278253032B7
:103570007825303278253032780000004572726F3D
:1035800072000000446F20636F6E6E65637400000C
:10359000436F6E6E656374656420746F207461722E
:1035A00067657400143000205363616E2074696D88
:1035B0006564206F75742E0010B5104C018860682A
:1035C00010290FD0112917D1401E6060002813D197
:1035D000FFF734FB00280FD0216800290CD0BDE88C
:1035E0001040084728B900F0F1FD10B1216801B181
:1035F00088476068401C606010BD0000882C002077
:103600002DE9F04105460C462E4E217803273088DF
:10361000002907EB004010D02B4D012927D00229AB
:103620004ED12AA102F024FE4FF480712B48FEF700
:103630003CFF00262E7100243AE029A102F018FE7A
:10364000618804F10E02284600F070F808B1FFF717
:1036500099FB284600F058F908B1FFF793FB308832
:1036600024A107EB0040BDE8F04102F001BE217B40
:103670004046FEF71AFF227B4046A168FEF7FCFE9B
:10368000A87800281CD0FFF7B3FB4FF47A714843A9
:10369000C20BAA613088434607EB0040BDE8F04109
:1036A00020A102F0F0BD08481C3000F0E1FD641CD0
:1036B000E8688442F7DBEE60BDE8F04103F0ECBD62
:1036C000BDE8F081B02D00207829002044697363A3
:1036D0006F6E6E65637465642E000000142F002009
:1036E000446973636F7665727920636F6D706C6582
:1036F00074652E00436F6E6E656374656420746F2D
:10370000206465766963652077697468204E6F72FE
:10371000646963205541525420536572766963652C
:103720002E0000002569092573000000002809D03B
:1037300041802AB15188C18011888180918801819E
:10374000002070470E20704730B585B004460D4606
:10375000124890E80E00C0688DE80E000390002C1F
:1037600018D0CDB12146684662DF002810D12078FC
:103770008DF812000120ADF810004FF6FF70608048
:103780002868E0600020A080208104A8FFF7E4FC06
:1037900005B030BD0E20FBE70E20F9E7E8800200FF
:1037A00010B5024686B00846002821D0002A1FD056
:1037B00041884FF6FF74A14202D09388994217D1F5
:1037C0001388112B07D0392B12D106B01146BDE852
:1037D000104003F091BB92888A4209D1C168002948
:1037E00006D002218DF804104480C26801A99047D8
:1037F00006B010BD30B585B005460C4614216846AC
:10380000FEF753FE04F10E012078002830D1A08885
:1038100001282DD1A0792A78904229D1002217E0E1
:1038200002EBC20331F81300022802D003280ED1A4
:1038300005E001EB43000089ADF8120007E001EB61
:1038400043031889ADF80E005889ADF81000521CDA
:10385000207A9042E4D8E868002809D06088ADF862
:10386000020000208DF80000EA686946284690476B
:1038700005B030BD3EB500280CD0154B0224F42A0B
:103880001B8804EB034307D9184612A102F0F0FC91
:1038900007203EBD0E203EBD4488A4F57F45FF3D78
:1038A00010D0114BD3E907545B6ACDE90054029361
:1038B0000389ADF80230ADF80620029140886946D0
:1038C0009CDF3EBD184609A102F0D2FC08203EBD97
:1038D0005C2D0020436F6E74656E7420746F6F20D2
:1038E0006C6F6E672E000000E8800200436F6E6E02
:1038F000656374696F6E2068616E646C6520696EC3
:1039000076616C69642E000000280AD04388A3F514
:103910007F41FF3907D0C18829B10122184600F044
:103920008FBB0E2070470820704708B502F0F2FFE9
:1039300008B1FFF727FA002000906946012002F045
:10394000BBFE08B1FFF71EFA684602F053FF0028DD
:1039500001D0FFF717FA08BD0149085C7047000065
:103960002480020008B50849085C0090684602F00F
:1039700039FAD0F810050099C84000F0010000B1F4
:10398000012080F0010008BD2480020008B509492B
:10399000085C0090684602F025FA00F204500168C5
:1039A000009B01229A4022EA010343600A408260A0
:1039B00008BD0000208002000249085C012102F0DD
:1039C00050BA0000208002000249085C002102F089
:1039D00048BA00002080020008B50849085C009041
:1039E000684602F0FFF9D0F804050099C84000F0DD
:1039F000010000B1012080F0010008BD208002001C
:103A00007CB50024084E0025305D0122009500237E
:103A10001146019502F03CF9641C042CF4D3BDE876
:103A20007C4000F003B800002080020010B50024A4
:103A30002046FFF7C1FF641C042CF9D310BD10B55C
:103A400000242046FFF7C0FF641C042CF9D310BDEE
:103A500010B501464FF0FF340020054A135C8B423D
:103A600001D1044602E0401C0428F7D3204610BDD3
:103A70002480020070B5024608460024064D2A60E4
:103A8000002801D003F04AFE686810B9FFF7D6F8A5
:103A90000446204670BD0000882C002010B5002090
:103AA00000F066FA08B1062806D1012000F060FA9D
:103AB00008B1062800D1002010BD00002DE9F04714
:103AC00081460E4600254846FFF7C2FF0446204FB8
:103AD000042C31D21F4BDFF880A007F10C08D6B1BF
:103AE000012E02D0022E27D122E004EB44001AF866
:103AF000005000EB0A06707848B1154A4FF40041B7
:103B0000D21C9868FFF7BAF908B987F80390B07823
:103B100008F8040010E09868FFF7CEF904EB4400C1
:103B2000504418F804108078814205D1054603E01E
:103B300004EB440050444578002D06D0B9680029B4
:103B400003D02846BDE8F0470847BDE8F0870000ED
:103B5000782C00202880020078300020FFF702BF78
:103B600010B5042826D00A281FD010282ED11848B6
:103B70000321008801EB004016A102F079FB1848F0
:103B8000FF210170A0214170012181706421C17069
:103B90000021017141718171C1710146BDE8104080
:103BA000082200F58070FFF765BEBDE810400020D8
:103BB00002F050BD0B481321408876DF082805D05D
:103BC000002803D0BDE81040FFF7DCB810BD0000AE
:103BD000B02D0020425350204556454E5400000061
:103BE000142F00201430002030B503460020042B91
:103BF00019D2012A02D101290BD000220B4D03EB6F
:103C000043035C1969B1012907D0022907D00720B5
:103C100030BD03F10E02D2B2F0E7EA5430BD62705B
:103C200030BDA27030BD072030BD000078300020CC
:103C30000246002003490979C90702D0104600F066
:103C40004DB87047782C002070B5064600241E48F9
:103C500046608160B00720D5002506E001221146AC
:103C60002846FFF7C1FF04466D1C042D01D2002C2D
:103C7000F4D034B940F2666204211448FFF70EF81C
:103C8000044614B9FEF7F8FF044634B90F48104A49
:103C90000021001FFFF7B2F80446F00701D0FFF73C
:103CA000AFFE34B909480B4A00210C38FFF7A6F8DB
:103CB000044634B90548084A01210838FFF79EF840
:103CC0000446204670BD0000782C0020348002009D
:103CD00011400200D14A0200732C02002DE9F05F6E
:103CE00004460027A04DB9466878002803D085F81F
:103CF000019000F0D7FE9D4E4FF47A6A4FF4C87BD6
:103D00004FF00108182C10D2DFE804F00C10103925
:103D10005A7B8F9BA0ADBAC7D4D8D8D8D8D8FEFDCF
:103D2000FCFBFAFA00F0BEFE2C7019E10020FFF750
:103D300053FE38B10020FFF73FFE022C0AD14FF4AA
:103D4000E16A07E00020FFF73FFE022C01D14FF0AF
:103D5000C80BDA462C704FEACA304FF4FA724FEAB9
:103D60005A41801841F1000152000023FEF74EFB3A
:103D7000014600223068FFF781F80746F0E0002096
:103D8000FFF72AFE28B10020FFF716FE4FF4487017
:103D900003E00020FFF718FEC8202C70410CC00380
:103DA0004FF4FA72801841F1000152000023FEF72F
:103DB0002DFB014600223068FFF760F80746CFE090
:103DC0000020FFF709FE18B10020FFF7F5FD03E022
:103DD0000020FFF7F9FDDA462C704FEACA304FF4A5
:103DE000FA724FEA5A41801841F100015200002353
:103DF000FEF70CFB014600223068FFF73FF807464C
:103E0000AEE00020FFF7E8FD18B10020FFF7D4FD79
:103E100002E00020FFF7D8FD2C7041F69A11002235
:103E20003068FFF72BF807469AE00020FFF7AEFD59
:103E30002C70002240F6CD413068FFF71FF807468E
:103E40008EE00020FFF7C0FD2C7089E085F801802E
:103E50000120FFF79BFD002240F6CD413068FFF7BF
:103E60000DF807467CE085F801800120FFF78EFD04
:103E700000224FF480413068FFF700F807466FE0FA
:103E800085F801800120FFF781FD002240F6CD4139
:103E90003068FEF7F3FF074662E085F801800120F5
:103EA000FFF774FD00224FF480413068FEF7E6FF13
:103EB000074655E0FFF7C3FD2C7051E07068FEF730
:103EC000FBFF0746C4F1110000B12FB10220FFF73C
:103ED00073FD85F8029043E001281CD980B2C82107
:103EE0004843C117C90341EA5041C0034FF4FA7275
:103EF000801841F1000152000023FEF787FA04E028
:103F00002BE020E018E010E00BE001460022706892
:103F1000FEF7B4FF07460220FFF756FD85F8028042
:103F20001EE000F0BFFD2C701AE000F0BBFD002089
:103F3000FFF74AFD2C7013E000F0B4FD0120FFF7FD
:103F400043FD2C700CE000F0ADFD0020FFF73CFDC0
:103F50000120FFF739FD2C7002E0FFF770FD2C7097
:103F60003846BDE8F09F0000782C00202880020031
:103F700010B5FFF7F1FC032101F004FF002010BD94
:103F8000F8B50D46861C0127002000906846FFF713
:103F900021F8134C20682860D4E90001401AA16878
:103FA000091A491CB51C07E000F044FED4E90001E1
:103FB000401AA168091A491C8D42F5D8A1682068E9
:103FC000084004EB8000C16841F00301C160206833
:103FD000304420609DF80000FFF71EF83846F8BD19
:103FE000D43600208268531C836003689954D0E95A
:103FF0000121914201D301F076BD7047034803C807
:10400000814201D10120704700207047D436002042
:1040100000780221FFF752BD08B508490320FFF7D9
:1040200013FE08B1FEF7AEFE69460020FFF722FD41
:10403000002801D0FEF7A6FE08BD0000613B02008B
:104040001FB58DF80C2000228DF80D20064A53690B
:104050001269CDE90023ADF8021003A90291694667
:104060009CDF04B010BD0000E880020005494FF05D
:10407000FF3241F82020082802D3084480F8582055
:1040800070470000D0330020F0B507464FF0FF30F6
:10409000002A02D04FF0000301E04FF0080302D0E5
:1040A0004FF0080501E04FF00C050B4C04E054F80C
:1040B0002360761C03D05B1CAB42F8D3F0BDE5193E
:1040C00058B285F8300044F82310002AF6D1E118E0
:1040D00081F85870F0BD0000D03300200249084438
:1040E00090F9300070470000D033002008B5024638
:1040F0000B4692F8C60200EB8001C1EB801002EB88
:10410000400092F8C522002A0AD0521ED2B202EB19
:10411000C20100EB4102518A491CADF8001002E0D7
:10412000C188ADF800100089ADF802006946184654
:1041300096DF08BD70B50546002D01D0064C05E0A0
:10414000054C083C02E0416828468847204600F0BC
:10415000A1FC0028F7D170BDCC3300202DE9F0413F
:104160001849486800282BD00768DFF85C80D8F829
:1041700000408E68A01B20F07F45ED1C887808B9B0
:1041800003F01CF8BD4200D23D46A81920F07F4044
:104190000D4A3C321060D8F80010091B21F07F4115
:1041A000C91C001B20F07F40814209D9D8F80000CB
:1041B00010602F2000F0F8FFBDE8F04103F058BC7C
:1041C000BDE8F081B42C00200415014010B5002199
:1041D00001220846FFF708FD08B1072810D1072281
:1041E00002210120FFF700FD08B1072808D10422B1
:1041F00002210020FFF7F8FC08B1072800D10020B9
:1042000010BD00001CB5044600200090019001EB99
:10421000C400017BADF80010007BADF80200002265
:104220006946204690DF0346002B08D00448012150
:104230002246008801EB0040024902F024F81CBD30
:10424000502D00209484020001460148FFF7D2BAA5
:104250001430002010B50548FEF78CFF002803D06D
:10426000BDE81040FEF78EBD10BD000049420200BF
:1042700010B5014600290CD0086840B1064A036811
:1042800013604368536082680A6000F011FA0248C4
:1042900010BD002010BD0000A32900202DE9F84F1B
:1042A0000546894692464FF0000895F8C60200EB95
:1042B0008001C1EB801005EB400695F8C54204EB88
:1042C000C40006EB40010A313279601C904222D1D1
:1042D0006B460022284600F04BFB80461EE0401E45
:1042E000A04201D1002705E0601C00EBC00006EBF6
:1042F00040070A376B463A46284600F039FB10B1B2
:104300004FF001080AE0394695F8C502401C85F8CF
:10431000C502641CE4B23079A042E0D8B8F1000FC5
:1043200007D0002089F800006946504697DFBDE8B5
:10433000F88F012089F800000020F8E72DE9F0410E
:1043400000250127DFF8608027E0D8F8040000EBA3
:10435000C504207807FA00F6D8F810100E421AD0DB
:10436000B143C8F8101001F077F801462078D8F86A
:104370000C3007FA00F21A4001FA00F39A420AD10F
:104380006278012A01D0012300E000234B406268DB
:104390000AB1D9B290476D1CEDB298F80000854281
:1043A000D3D3BDE8F0810000A02C00202DE9F04718
:1043B0000F46904690F8C61201EB8102C2EB8111C4
:1043C00000EB4109484602F0B9FE0446200026D021
:1043D000144EB068062822D2134D05EBC010A0F889
:1043E0000280001D76224946FEF746F82FB1B168DB
:1043F000002005EBC111087004E0B168022005EB54
:10440000C1110870B06805EBC011CC67401CB060EA
:10441000F168884203D1BDE8F04702F001BEBDE873
:10442000F0870000902C0020BC30002070B5A0B0B8
:104430000D46164690F8C63203EB8301C1EB83119B
:1044400000EB410002F07AFE0446002C09D07C22E9
:10445000054901A8FEF710F8ADF80660029501A81D
:10446000A04720B070BD00005480020070B5044623
:104470000E464FF433712046FEF717F8A4F8CA62CF
:104480000F480025856084F8C95284F8C65284F824
:10449000C55222460B48006810600121304694DF67
:1044A0000121112806D0002809D184F8C71284F808
:1044B000C85203E084F8C71284F8C812002070BD07
:1044C000902C0020A430002010B50E4A0023117853
:1044D0005478A14212D0491CC9B21170022900D1EE
:1044E0001370084913780C3151F82310016090685B
:1044F000084420F07F409060012010BD0360002040
:1045000010BD0000B42C002070B504460D460C20F0
:1045100000F0C4FC4CB140B1296801606968416099
:1045200000218160216819B908E0002070BD1146A2
:104530008A68002AFBD18860012070BD20600120BC
:1045400070BD4FF08050D0F83011082902D1D0F85A
:10455000340108B100207047012070474FF08050AF
:10456000D0F83011082902D1D0F8340108B1002068
:104570007047012070474FF08050D0F83011082963
:1045800002D1D0F8340108B10020704701207047F3
:104590004FF08050D0F83011082908D1D0F83401FC
:1045A00038B1012807D0022807D0032807D00120FE
:1045B000704701207047012070470120704701209B
:1045C00070474FF08050D0F83011082908D1D0F84A
:1045D000340138B1012807D0022807D0032807D0BA
:1045E000012070470120704701207047012070476B
:1045F000012070474FF08050D0F83011082908D1C1
:10460000D0F8340138B1012807D0022807D0032898
:1046100007D001207047012070470120704701201A
:104620007047012070474FF08050D0F830110829B2
:1046300002D1D0F8340108B1002070470120704742
:10464000F0B500240F4F19E01D68854203D91968A1
:10465000081A1860F0BD401B2C4400261E601E4640
:10466000DD697D60DD684DB101EB040C2CF07F4C01
:10467000C3F804C09D601568DD6116607B68002B7F
:10468000E2D1F0BDB42C0020826883881A40036810
:104690009A5C0A708168491C81607047C26883888F
:1046A0001A4003689954C168491CC16070470000F2
:1046B00010B5002821D0114B0022001F196803E01B
:1046C000814203D80A4649680029F9D152B11368DA
:1046D000841A9C4204D1006818441060104602E01D
:1046E000506000E0186039B102680B1A934203D1A0
:1046F0000B681A4402604968416010BD3C2D0020DF
:1047000070B50C462088A0F52061773915D10B4E85
:1047100003250BA1308805EB004001F0A9FDA0881E
:10472000C01E82B20D4802813088134605EB00405E
:10473000BDE870400AA101F0A6BD70BDB02D0020FB
:10474000415454204D54552065786368616E676507
:1047500020636F6D706C657465642E00782900208D
:10476000426C65204E5553206D6178206461746100
:10477000206C656E6774682073657420746F2030D8
:10478000782558282564290010B50949094800F002
:1047900093FC08B1FEF7F6FAF721064800F07FFC1B
:1047A000002803D0BDE81040FEF7ECBA10BD0000B1
:1047B00001470200243000202DE9F0410746012482
:1047C000BC40114E3068FEF777FB00280DD10F4D2D
:1047D0002869204207D1384600F03EFE38B1E8682B
:1047E0002043E86006E0A0432861BDE8F081E86866
:1047F000A043E860286920432861A9683068BDE8C3
:10480000F0410022FEF73ABB18810200A02C0020E4
:104810002DE9FC5F8346DDE90C470E46914698463C
:10482000C6F1000A002E01DA504600E030460125AC
:1048300002E090FBF9F06D1C4845FADAA84500D972
:10484000454624B1002E01DB780700D5641EB80769
:1048500002D5B8F1000F0BD0F80709D12CB907E049
:10486000641E20215846FFF7BDFB0CB1A542F7D3CB
:10487000002E05DA56462D215846FFF7B3FB05E01A
:10488000780703D52B215846FFF7ACFB07F0030050
:1048900002280CD1B8F1000F09D12CB907E0641E31
:1048A00030215846FFF79EFB0CB1A542F7D3CDE966
:1048B000004743464A463146584603F015FBBDE8DB
:1048C000FC9F000070B504460D4620791D494FF449
:1048D000A27601EB4010017F206800291DD04FF423
:1048E000887102F0EFF84FF49071206802F0EAF856
:1048F0004FF49271206802F0E5F83146206802F02A
:10490000E1F811492068C0F80413206800F0EEFCBB
:104910002946BDE8704000F0CDBC4FF48E7102F026
:10492000C0F83146206802F0BCF808492068C0F899
:104930000413206800F0DAFC2946BDE8704000F05E
:10494000B9BC0000383400201003020080000200CF
:104950000A8990F8C61201EB8103C3EB811100EBC9
:1049600041000089824201D2012070470020704737
:1049700010B50989002A05D0D088491C81421CD174
:10498000002010BD90F8C62202EB8204C4EB821214
:1049900000EB42021289914201D1002010BD491C56
:1049A000198090F8C61201EB8102C2EB811100EB75
:1049B000410000895880012010BD1980D088401E18
:1049C0005880012010BD2DE9F84306468946002491
:1049D00009F1100757E017F8048039194A78022ABC
:1049E0000AD0032A08D0042A1DD0052A1BD0062A83
:1049F00034D0072A32D042E0002510E004EB450015
:104A0000C119891C6A46022063DF38B9BDF800006D
:104A10003188884202D10120BDE8F8836D1CB5EBD6
:104A2000580FEBD32BE0002514E004EB8500C119EF
:104A3000891C6A46042063DF58B9BDF8000031883C
:104A4000884206D19DF80200B178884201D1012048
:104A5000E2E76D1CB5EB980FE7D310E0891C6A46BE
:104A6000102063DF58B9BDF800003188884206D1B4
:104A70009DF80200B178884201D10120CCE704EB17
:104A80000800401C84B299F80F00B4EBD00FA2D3F9
:104A90000020C1E701460868002801D002680A60CA
:104AA0007047000010B509488078002809D000241C
:104AB000022C02D02046FEF77FFF641C042CF7D3A3
:104AC00010BDBDE81040FEF7B1BF0000782C0020FB
:104AD00003480179C90702D00078FFF7FFB8704793
:104AE000782C002006490120086006480168C1F3BF
:104AF00000410029FAD10449002088707047000065
:104B00000C00004018040040BC330020F721018055
:104B100017214180002101714171FB2181711B210D
:104B2000C17170472DE9F04705464FF00008384F36
:104B3000D7F804A00026DFF8DC9056E015B12C462B
:104B4000E56934E099F8001001EB410009EBC00081
:104B5000001D491CC9B289F8001099F80220914241
:104B600001D189F8006044680178012912D0022936
:104B700002D0032939D10AE0204602F0B9FE08B17B
:104B80004FF00108267430E00674C06978607868D8
:104B900058B3F9E7217C41BB81686160C168A160BD
:104BA0000169E1604069A061F87800B16660606801
:104BB000B968194B421A22F07F429A4203D2A06888
:104BC0001044206009E0081A20F07F40A16881426B
:104BD00002D9081A206000E026606660A660012005
:104BE0002074E661204602F05FFE002DA6D199F800
:104BF000000099F801108842A0D1B8F1000F02D14D
:104C00007868504502D00120BDE8F0870020FBE71E
:104C1000B42C002090340020FFFF7F0010B500204E
:104C200001F0BAFB08B1FEF7ADF8BDE8104001F0A5
:104C300003BA00007FB5234800F0C4F92148001FE3
:104C4000064600F0BFF9204D6C68AA6804EA02002D
:104C500005EB80010C310AE0641CC1F3891000EB04
:104C60009150044404EA020005EB80010C3109680C
:104C70008807F1D0002101AB2046641C104005EBF1
:104C80008000C06843F82100491C0229F4D3019830
:104C900000F00300012808D002280AD1019803215E
:104CA00001EB905004EB900403E00198C0F38310F3
:104CB0000444304600216A46FDF761FB002800D01D
:104CC0006C607FBDEC3A0020D436002008B5FFF7B9
:104CD000A5FF0127B807876702F0B5FD02F0EEF9DE
:104CE00002F0D0FFFFF798F9FFF7B4FAFEF71DFEC8
:104CF000FFF74AFD01F0ECFE02F078FC5B4803216F
:104D0000008801EB00405AA101F0B2FA02F0C4FAA7
:104D1000DFF874A1DFF874B14FF004094FF0E02818
:104D20000026AAF10605E86820282BDB287948BB75
:104D30004FF4807000F0B2F8686185F800900024AC
:104D400051481630FFF794FA6969026801EBC40113
:104D50000A6040684860E868401EE860641C1F2CD8
:104D6000EEDBEE6069784A48FDF79FFB68780090BB
:104D7000474B2A784748696900F0BEFB08B1FEF747
:104D800001F86E716879002863D02879E8B3E86883
:104D900000285EDD4FF4807000F080F8686185F8CF
:104DA0000090EFF3108072B6DBF8081019B18AF8A2
:104DB0000070A8B115E0CBF80870D8F8802136490A
:104DC0000A40CBF80020C8F88011D8F88411CBF83D
:104DD00004104FF0FF31C8F884118AF80060E8E74A
:104DE00062B6002428481630FFF742FA6969026863
:104DF00001EBC4010A6040684860E868401EE86052
:104E0000641C1F2CEEDBA87900E022E0DBF8081020
:104E100079B170B9EFF3108072B6DBF80010C8F802
:104E20000011DBF80410C8F80411CBF8086000B9D1
:104E300062B669781648FDF738FB68780090144B25
:104E40002A781448696900F057FB08B1FDF79AFF0A
:104E50006E7101F0FFF800287FF465AF01F0DAFB16
:104E600001F0F8F80028FBD15DE70000B02D00202C
:104E7000436F6E74726F6C2053746174696F6E202F
:104E800073746172742E00007E290020BC350020EE
:104E9000142F0020D87F0200FC06FFBDF0B50B30B8
:104EA000154D20F007010024144A0FE003688B42DF
:104EB0000BD38B4205D95E1A43184768C3E90067D4
:104EC00000E04368136002C004E0021D106800287F
:104ED000ECD12046002802D1286808B10020F0BD9E
:104EE000064A07481060074A121A22F00702C0E972
:104EF000002401202860D7E7402D00203C2D002011
:104F0000843D0020805D00202DE9F0478946DDF8D2
:104F100020A01546C6880446181DB0FBF6F1B0FB6C
:104F2000F6F206FB12005A193244D21CB2FBF6F21A
:104F300001E02468491E0029FBD10027A6EB0008E8
:104F4000A8451DD9A8461BE0BAF1000F07D02118CB
:104F5000091D09EB07004246FDF78EFA06E02044E2
:104F600009EB0701001D4246FDF786FA0020246880
:104F7000A5EB08054744AE4201D9A84600E0B0467B
:104F8000002DE1D1BDE8F08730B50346002914D0EB
:104F900001F030FA00210A4C0BE001EB410204EB76
:104FA00082021D685288AA4202D11960002030BDD9
:104FB000491C8142F1D3052030BD002030BD0000E6
:104FC000442D002008B501216A46FDF7CBF9009871
:104FD00008BD38B504460025002000906846FDF75E
:104FE000F9FF21686268086890420FD9401E086086
:104FF0000178204600F02DF805462068217A0278D5
:10500000891AC9B202798A4200D201719DF8000062
:10501000FEF702F8284638BDC268008A891AB1FB3B
:10502000F0F0C0B2704738B505460C46002000903D
:105030006846FDF7CFFF21462846FFF7EDFF2A68B7
:1050400011684B1C136008709DF80000FDF7E4FF29
:1050500038BDC268008A01FB0020704710B50028E7
:1050600006D0017A4268891AC9B203681A6006E05C
:105070000E2010BD03681A68541C1C601170491E74
:10508000C9B2F7D2006800210171002010BDC2082A
:1050900000F007030120895C984008407047002811
:1050A00005D0A1F11702E12A03D3072070470E2093
:1050B000704741800020704770B50546002D10D024
:1050C0002961F72028806880FB202871002405EBE7
:1050D000C400801DFFF71AFD641C002CF7D00020CF
:1050E00070BD0E2070BD000070B502460C4695885C
:1050F000002D43D11088232820D006DC102809D0A9
:1051000011280CD0222822D11DE03A280CD0552895
:105110001DD10EE01146204601F080FD17E011463A
:10512000204601F082FE12E01146204601F0BEFE4C
:105130000DE01146204601F07FFE08E011462046B2
:1051400001F0A4FD03E01146204601F0C3FDA07A62
:10515000002813D0E18828469EDF0246012052B184
:10516000112A0BD006490988BDE8704000EB0140C8
:10517000044901F081B80021A172E07270BD000005
:10518000502D0020C483020000F1804000680028F8
:1051900000D00120704708B500F180400021016077
:1051A0000068009008BD000000283ED01F4A20493A
:1051B000126800BF00BF00BF00BF00BF00BF00BF3C
:1051C00000BF8A422FD000BF00BF00BF00BF00BF9A
:1051D00000BF00BF00BF00BF00BF00BF00BF00BFD7
:1051E00000BF00BF00BF00BF00BF00BF00BF00BFC7
:1051F00000BF00BF00BF00BF00BF00BF00BF00BFB7
:1052000000BF00BF00BF00BF00BF00BF00BF00BFA6
:1052100000BF00BF00BF00BF00BF00BF00BF00BF96
:1052200000BF00BF00BF0138C3D17047382D002038
:105230000024F40070B50025104C2078002801D01F
:10524000852518E00021A16061602161E1600C48C2
:105250000068012610F0010F01D0012100E00021BB
:1052600019B90721002000F025F801F093FB08B9D7
:10527000044806602670284670BD0000BC3300203C
:1052800000E100E01805004008B5002000906846E5
:10529000FDF7A0FE0648C168491EC160C06808B994
:1052A000FFF720FC9DF80000FDF7B6FE08BD0000EA
:1052B000BC3300204907090E002806DA00F00F026F
:1052C00002F1E02282F8141D03E000F1E02282F8EE
:1052D000001400F01F02012191404009800000F1FC
:1052E000E020C0F88012C0F800117047000B40B2F7
:1052F000704700002DE9F04105468846284601F038
:10530000A3FE244FD0B12846FEF7E8FE384490F8BB
:1053100058008009032807D001280DD00321284612
:10532000BDE8F04100F046BD284600F085FD08B11B
:105330000321F4E70221F2E70221F0E7284601F019
:105340008FFE002823D02846FEF7C8FE04464FF4FF
:10535000807000EB840082B220460F4E06EB800086
:10536000D0F8101541F00101C0F81015104600F0FA
:10537000A3FDB8F1000F0AD02846FEF7AFFE57F89C
:105380002000002803D00120A040C6F80403BDE897
:10539000F0810000D0330020006000402DE9FC4186
:1053A0000C46054611460027DFF8A08008EB0500F3
:1053B00090F93000C017401C002801D0082741E0B8
:1053C000E2782846FEF760FE0646701C39D0A078C9
:1053D00068B1019501A800F013FD019900EB81006F
:1053E000D0F8001721F00201C0F8001707E0637839
:1053F0002846002100910A46019100F062FCE07805
:10540000B0B12178124800EB860000F5A260026876
:10541000104B1A4002604FF47C524FF4403302EAC2
:10542000052203EA01410A4301680A43026009E0D8
:1054300008EB0600227810F8581F41EA821101702B
:1054400000E004273846BDE8FC810000D03300208E
:1054500000600040FFC0FCFF10B500F0EDFC00282C
:1054600000D0012010BD000070B5144D95F8640007
:10547000002801D0082070BD0020411E2A1882F8A3
:105480003010401CC0B23028F8D300242046FEF76C
:10549000EDFD641CE4B20C2CF8D307210620FFF7C5
:1054A00009FF4FF4BE7000F007FD4FF000400449C3
:1054B0000860012085F86400002070BDD033002012
:1054C00004630040034890F86400002800D00120E5
:1054D00070470000D03300200121B1EB507F01D193
:1054E00001207047002070470121B1EB507F01D1AE
:1054F00001207047002070472DE9F0470746DDF88E
:1055000020900D4690461E463879184900EB400021
:1055100001EBC004002E14D0ADB12846FFF7E4FF24
:1055200098B13046FFF7E0FF78B1607D78B101288F
:105530001AD002280BD0032809D003252846BDE83D
:10554000F0870E20FBE70E20F9E71020F7E7E56073
:105550002661C4F80080C4F8049000250122214689
:10556000386802F0A0F8E9E70825E7E7583400209A
:105570002DE9FC5F06460C469146307900EB400170
:10558000534800EBC108356898F81400002802D091
:105590000820BDE8FC9F207C032801D90720F8E7FC
:1055A000B9F1000F11D020684FF0FF374FF0000A1B
:1055B000FF280CD0E17CCDE9001A00231A461946D9
:1055C00000F0B2FBD4F800B002E00E20E1E7BB46E9
:1055D0006068FF2809D00023CDF800A01A461946BC
:1055E000CDF804A000F0A0FB6768CDF800A0CDF8CE
:1055F00004A00022A37C1146E06800F095FB002384
:10560000CDF800A0CDF804A01A461946A06800F015
:105610008BFBD4E90201C5F80805C5F81075C5F87B
:105620000CB5C5F81415C5F834A5C5F838A5C5F8E6
:1056300044A5C5F848A5217C607C08B1012000E0A4
:105640000020012904D0022905D0032908D105E052
:1056500040F0020004E040F0040001E040F00600E9
:10566000C5F85405207DC5F85C05607DC5F8C0050A
:105670004FF48271284601F0E2F94FF49471284604
:1056800001F0DDF9D5F8000240F00400C5F8000291
:1056900030790F4900EB400001EBC00080F815A005
:1056A000307900EB400001EBC000C0F8089040F2F8
:1056B0000240C5F80403A17D96F90500FFF7FAFD45
:1056C000012088F814000220C5F80005504660E764
:1056D000583400202DE9F04105460E46174628793A
:1056E000DFF8588008EB4014E07E002802D0082044
:1056F000BDE8F081707F207731462846FDF7A4FC95
:105700006760306920601FB1317F2846FFF7DAF803
:10571000287908EB4010007F20B128680821C0F8E4
:10572000001503E028680421C0F800150020E0758A
:105730002076A0750121E176A076D9E738340020E3
:105740002DE9F04105460F4690462879294E06EB93
:105750004014207F002803D03846FFF7BDFE78B103
:10576000002360684FF404714FF4017270B128791E
:1057700006EB4010007F30B12868C0F8081305E040
:105780001020BDE8F0812868C0F80823E07D90B1C2
:10579000207E78B1606858B1287906EB4010007F10
:1057A00018B12868C0F8041302E02868C0F8042380
:1057B0001120E6E7012373B1276184F81880287966
:1057C00006EB4010007F68B1424639462846BDE8E6
:1057D000F04100F07DB884F81780E7600020607623
:1057E0002076ECE7424639462846BDE8F04100F015
:1057F0001BB800003834002070B50446094D2079EC
:1058000005EB4011087F00280AD1887E002807D1C7
:10581000204601F030FD2179012005EB4111887609
:1058200070BD0000383400202DE9F05F04462749A0
:10583000207901EB4015A87E002803D113B920463A
:1058400001F019FD686838B120684FF40171C0F8A3
:1058500004130020BDE8F09F4FF4A2794946206868
:1058600001F01FF94FF4927A4FF4847B514620687F
:1058700001F012F907465946206801F00DF98046FB
:105880004946206801F008F9064648EA060858EA41
:105890000708EBD057EA060007D12946206801F037
:1058A000C5FCE87D697E8842E0D80020E8750FB12C
:1058B0000320CFE70EB10F20CCE7A87E012110B165
:1058C00020680160C5E720684160C2E738340020E5
:1058D0002DE9F05F04460E461746984600254FF422
:1058E00088794946206801F0EDF84FF4A27A5146D4
:1058F000206801F0E7F82068C0F83465C0F8387512
:10590000B8F1000F15D02068D0F8001241F0200146
:10591000C0F800122079DFF8608008EB4010406882
:1059200058B120684FF40471C0F804132846BDE84C
:10593000F09F206801210160ECE74FF4927B49461B
:10594000206801F0BAF807465146206801F0B5F822
:1059500006465946206801F0B0F837430743EED0B9
:105960002279002108EB4212D17500B10325002EE7
:10597000DCD00F25DAE70000383400202DE9F047AD
:1059800004460F4690462079264E06EB4015287FA8
:10599000002803D03846FFF79FFD30B1204600F0C5
:1059A00089F820B11120BDE8F0871020FBE785F8C9
:1059B0001680AF604FF00008A5F81480207906EB40
:1059C0004015287F48B300264FF490794946206857
:1059D00001F078F84FF4AC7A5146206801F072F883
:1059E0002068AA7DA968C0F84415C0F84825206839
:1059F00001218160686870B94946206801F05DF84E
:105A000007465146206801F058F80743F4D000B12A
:105A10000F2685F816803046C5E72046BDE8F047DA
:105A200000F002B8383400202DE9F047054620493F
:105A3000287901EB40144FF000084FF48E77394677
:105A4000286801F02EF828684FF00109C0F8089086
:105A50002146286802F00FF8606830BB4FF480766A
:105A60000EE03946286801F017F810B9A08AB04254
:105A7000F7D1A08AB04203D02146286801F0FBFF8D
:105A8000A08AA17D8842ECD3A08AB04202D14FF017
:105A90000F0808E03946286800F0FEFF0028F9D01A
:105AA0002868C0F80C900020A0754046BDE8F0873B
:105AB000383400200079044901EB4010807D002833
:105AC00000D0012070470000383400200FB408B522
:105AD0000399002904D004AA00926A4600F00FF846
:105AE00001B05DF814FB10B50446A268002A05D089
:105AF000D4E90403216898470020A06010BD2DE977
:105B0000FC4106460C461546002C75D014F8011BC6
:105B100039B125290DD03046FEF764FA20780028E7
:105B2000F4D1307B002867D03046BDE8FC41FFF758
:105B3000DABF0023012021782B291DD02D2913D075
:105B4000302915D000200028F5D100222A2917D0AD
:105B50002178A1F130000A2818D2641C02EB8200DF
:105B600001EB4002303AF1E743F00103641CEAE73D
:105B700043F00203641CE6E743F00403641CE2E71D
:105B80002868011D296000680244641C00202178F7
:105B90002E290CD1641C2178A1F130070A2F06D2DE
:105BA000641C00EB800001EB40003038F3E76C2907
:105BB0000DD068290BD069291FD00BDC25295FD0B7
:105BC000582932D063290ED064295DD115E0641CB8
:105BD0002178ECE770293CD0732932D0752918D090
:105BE000782951D121E02868011D29600078C1B2CF
:105BF0003046FEF7F7F947E048E029680F1D2F60AF
:105C00000968CDE9002303460A223046FEF700FE6C
:105C10003AE029680F1D2F600968CDE9002303468B
:105C20000A22304602F060F92EE029680F1D2F602D
:105C30000968CDE9002303461022304602F054F9EA
:105C400022E02868011D29600168304601F0C2FD8C
:105C50001AE02868011D2960076830213046FEF7E8
:105C6000C1F978213046FEF7BDF908210020CDE9C1
:105C700000100B4610223946304602F035F903E099
:105C800025213046FEF7AEF9641C47E7BDE8FC81EC
:105C90002DE9FF410C46DDE90A7815461E466846A7
:105CA00000F0A0F844EA4501009A41EA860141EA81
:105CB000072100EB820041EA0841C0F80017BDE867
:105CC000FF812DE9FF410C46DDE90A7815461E46A5
:105CD000684600F095F844EA4501009A41EA8601D9
:105CE00041EA072100EB820041EA0841C0F80017B1
:105CF000BDE8FF812DE9FF410C46DDE90A78154634
:105D00001E46684600F08AF844EA4501009A41EAD6
:105D1000860141EA072100EB820041EA0841C0F810
:105D20000017BDE8FF81000070B5DDE904562028AA
:105D300002D24FF0A04402E000F01F00064C41EAFE
:105D4000420141EA830141EA052104EB800041EA76
:105D50000641C0F8001770BD000300501CB50022BA
:105D60000B46009211460192FFF7C4FF1CBD1CB503
:105D7000002100910B46012201911146FFF7BAFF65
:105D80001CBD0000202802D24FF0A04202E000F02B
:105D90001F00074A02EB800000F5E060026822F471
:105DA00040320260026842EA01410160704700002F
:105DB0000003005013B50C46684600F021F8009926
:105DC00000EB8102D2F8001721F44031C2F800172D
:105DD000009900EB8100D0F8001741EA0441C0F8B7
:105DE00000171CBD0168202902D24FF0A040704767
:105DF00001F01F01016001487047000000030050DE
:105E00000168202902D24FF0A040704701F01F0125
:105E1000016001487047000000030050016820291C
:105E200002D24FF0A040704701F01F01016001480D
:105E3000704700000003005001B56846FFF7E0FF1F
:105E4000D0F810050099C84000F0010008BD01B568
:105E50006846FFF7E3FF009A01219140C0F808155A
:105E600008BD38B50124002908D000906846FFF726
:105E7000B9FF00998C40C0F8084538BD00906846CD
:105E8000FFF7B0FF00998C40C0F80C4538BD00000A
:105E90001CB5084B18CBCDE900346B46441805E01F
:105EA00053F82010D1F8101502C2401C8442F7D8D4
:105EB0001CBD00001081020008B503490844002100
:105EC00001600068009008BD00600040034908447C
:105ED0000068012800D000207047000000600040EA
:105EE00010B50446FDF71EF9411C09D02072074A7F
:105EF000D2F8101429B149686160D2F810144C60CE
:105F000010BDC2F810440021616010BDD4360020DD
:105F10007047FCF79BBC704708B5034A00924023CA
:105F2000024A00F005F808BD71730200D435002064
:105F3000F0B593B00F46189E14461D46384600F043
:105F40002EFB18210DA8FCF7B0FA0D940E951296B1
:105F50000023082207A9384600F03BFB08260998D1
:105F60000A900898ADF82C0000208DF830000798B2
:105F700000F00300012802D002281ED03EE007985E
:105F8000850A0798C0F3C2008DF82E000798C0F369
:105F900080008DF82F000798C0F38314A2003346C9
:105FA00001A9384600F015FB0DA800900AAB224667
:105FB00001A9284600F04CFA20E00798840D0798C4
:105FC000C0F3C2008DF82E000798C0F380008DF852
:105FD0002F00082C01D2254600E0082533462A462A
:105FE00005A9384600F0F5FA2E44641B0DAB0AAA49
:105FF000294605A800F07CF9002CEAD1384600F0CB
:10600000D7FA13B0F0BD00000A4A02EBC000012924
:1060100007D0022907D0032907D0042907D0002080
:10602000704702207047042070470079704740791C
:1060300070470000CC8A020010B5FFF76AFF042108
:106040000348FFF74DFF02490120487210BD0000D0
:10605000E02C00202DE9FF5FFDF7D0FF18B10020F4
:1060600004B0BDE8F09FDFF800820020C8F81804F3
:10607000BFF34F8FD8F80440D8F8085004EA050061
:1060800008EB80000C300026B1460AE0641CC0F327
:10609000891101EB9050044404EA050008EB8000EC
:1060A0000C3000688107F1D0002001AA2146641C51
:1060B000294008EB8101C96842F82010401C0228E1
:1060C000F4D3019800F00300022806D0012861D023
:1060D0000198C04380077DD096E001984FEA905A1E
:1060E00001985021B1EB905F01D9574600E050274D
:1060F000019867F39F50019007F108015B4800F099
:1061000002FA064630007FD000F049FA4B460822DA
:1061100001A9304600F063FA09F1080904EA050113
:10612000681A401C8000874227D94F4D0C35002843
:1061300004D008EB810101F10C0100E0294601D0F7
:10614000024600E03A4602F0FF0B01D14FF0000595
:1061500002D0A7EB000001E04FF00000C7B24B46B1
:106160005A46304600F03BFA09EB0B036DB13A4654
:106170002946304600F033FA07E008EB81010C3184
:106180004B463A46304600F02AFA0AF1030A04EB7D
:106190009A0439E00198C0F38310062800D3062042
:1061A000019960F3891101910198C0F38310801C5B
:1061B00081002E4800F0A7F90646300024D000F0F8
:1061C000EEF94B46082201A9304600F008FA09F121
:1061D000080900E015E000270DE02046284008EB04
:1061E0008001641C0C314B460422304600F0F7F964
:1061F00009F104097F1C0198C0F38310B842ECD860
:1062000002E0D8F8180448B146B3D8F81054D8F8CA
:10621000180480B1304600F0CBF91FE000201FE7E2
:106220000020697A01B1012020B128463146026878
:10623000126890476D68002DF2D1304600F0B8F931
:10624000002000906846FCF7C5FED8F8180408B98D
:10625000C8F804409DF80000FCF7DEFEFDF7CEFE16
:1062600080F00100FCE60000D436002084820200A9
:1062700000231A4601F066BA08B5009201236A4667
:1062800001F060FA08BD1CB50092019302236A4632
:1062900001F058FA1CBD7FB5DDE908450092019375
:1062A0000294039504236A4601F04CFA7FBD70B551
:1062B00086B00AAC70CC01920293039404950596C3
:1062C000052301AA01F03EFA06B070BDF0B587B013
:1062D000DDE90E57DDE90C46019202930394049622
:1062E00005950697062301AA01F02CFA07B0F0BD28
:1062F0002DE9F04707460E4692469846082E3CD8B0
:1063000098F80C90002088F80C004146504600F0A8
:10631000DFFE0024B44205D23A5D19A14046FFF7E2
:10632000D5FB03E018A14046FFF7D0FB641C082C06
:10633000F0D316A14046FFF7C9FB0024B4420ED2A9
:106340003D5DFCF795F80068405D10F03E0F00D110
:106350002E252A460EA14046FFF7B8FB03E00DA10B
:106360004046FFF7B3FB641C082CE7D301224146EB
:10637000504600F081FE88F80C90BDE8F0870000E0
:106380002025303278000000202020007C00000012
:10639000256300002000000010B51148FF21816036
:1063A000002101604160C0F81814C0F8141480F88E
:1063B0001C140C4800F0FAF800280FD10A480B49C9
:1063C000401AC20800200A4B05E000EB400103EB35
:1063D00081010880401C9042F7D3002010BD0000CE
:1063E000D436002084820200348B0200CC8A020062
:1063F000442D002002480349401AC008704700009D
:10640000348B0200CC8A020013B56846FEF7BCFD4F
:1064100008B100201CBD0348009900EBC1000068D2
:106420001CBD0000CC8A020070B50848D0F81044AA
:10643000012580F81C5405E0657220460168496812
:1064400088476468002CF7D170BD0000D436002066
:106450002DE9FF4707460C9D0C46914698462E7B3A
:10646000002028732946404600F032FEB9F1070F9C
:1064700041D2DFE809F004090F151D273300394622
:106480002846FFF723FB36E0394628462268FFF707
:106490001DFB30E00CCC39462846FFF717FB2AE0FD
:1064A000A06800900CCC39462846FFF70FFB22E08D
:1064B000D4E90201CDE900010CCC39462846FFF7AA
:1064C00005FB18E0D4E90321A068CDE90121009083
:1064D0000CCC39462846FFF7F9FA0CE0D4E9022340
:1064E000D4E90410CDE90210CDE900230CCC3946E3
:1064F0002846FFF7EBFA00222946404600F0BCFD93
:106500002E73BDE8FF872DE9F04107463D8A2D1F18
:106510004819C01CB0FBF5F000F0FF083846FEF744
:1065200058FD044620000AD000202071012060712F
:10653000E5802646A8F10108376000250DE000201F
:10654000BDE8F0813846FEF744FD50B16179491C41
:1065500061713060076006466D1C4545F2D32046E8
:10656000EEE7204600F002F80020E9E72DE9F041CF
:1065700001464D790A466B1E002001E01268401C5E
:106580009842FBD31768002405E00E683846FEF7F2
:106590004AFD3146641CAC42F7D3BDE8F08108B532
:1065A000001D01216A46FBF768FE08BDFEF756BDD7
:1065B0001CB50446201D01216A46FBF76BFE0098BE
:1065C00001909DF80400002802D12046FFF7CEFF7D
:1065D0001CBD38B501240094FEF796FC38BD38B5D3
:1065E00000240094FEF790FC38BD000010B5064969
:1065F00000204870091D0860BFF35F8F03490448FD
:1066000000F0EEF9002010BDD82C002068810200B7
:10661000C835002008B5002000906846FCF7DAFC79
:10662000F1EE100A20F09F00E1EE100ABFF35F8F39
:106630000749402008609DF80000FCF7EDFC00F0E1
:10664000A9F908B13EDF08BD20BF40BF20BF08BD8B
:1066500084E200E0F8B50446104801216A46FBF7E1
:1066600027FEBFF35F8F68B10020002809D0002506
:106670000A4E042C0BD0301F417829B1BFF35F8F35
:106680003560F8BD0120F0E704700121417000F091
:1066900097FEBFF35F8F3560F8BD0000DC2C002053
:1066A000002804D0034909680160002070470E20CB
:1066B00070470000108302002DE9FE4380460C461F
:1066C0002046FFF7EDFF00287ED1002500950195BB
:1066D00002958DF8008001278DF802700320ADF837
:1066E000040069462020226869DF3B4E40B100F07B
:1066F000C9F902463088394907EB0040FFF7BCFD75
:106700000095019502958DF800508DF801708DF877
:10671000027069464020226869DF40B100F0B2F99A
:10672000024630882E4907EB0040FFF7A5FD009593
:10673000019502958DF80080F720ADF802006946BA
:106740002320226869DF40B100F09CF902463088BE
:10675000244907EB0040FFF78FFD00950195029556
:106760008DF8007069460120226869DF40B100F0B1
:1067700089F9024630881C4907EB0040FFF77CFD91
:10678000019502954FF4B06000906946A1202268FF
:1067900069DF40B100F076F902463088134907EB13
:1067A0000040FFF769FD0095019502958DF80050B6
:1067B0006946A020226869DF50B100F063F9024603
:1067C000308807EB004000E003E00949FFF754FD83
:1067D0000020BDE8FE830000C82D0020588902007B
:1067E000A0890200EC890200B88802000489020036
:1067F000648802002DE9F04104462668204660DFE7
:1068000005462368124FB34212D038884FF0020871
:1068100008EB004032460FA1FFF735FD00F086FC83
:106820002168421A388817A108EB0040FFF724FDC1
:1068300055B1284600F026F902463888012101EBBF
:10684000004019A1FFF718FD2846BDE8F0810000BF
:10685000C82D002052414D20737461727473206101
:106860007420307825782C2063616E206265206169
:10687000646A757374656420746F20307825782E8F
:106880000000000052414D2073697A652063616EFB
:106890002062652061646A757374656420746F207A
:1068A000307825782E00000073645F626C655F6548
:1068B0006E61626C6528292072657475726E6564FC
:1068C0002025732E0000000030B5EBB04FF4CE74DD
:1068D000039403A904A861DF30B1052816D06BB07A
:1068E000BDE83040FCF74EBA04AD0949684600F0F7
:1068F00077F807E002990A68496828469047684691
:1069000000F088F802980028E2D0F3E76BB030BDC1
:106910001483020038B5124C2078002801D00820DA
:1069200038BD0125A570002000F0F4FC112814D01A
:10693000002000F007FD0B48006800900A496846F7
:1069400010DF0028ECD12570A070607000F07CFD95
:10695000012000F0F7FC002038BD002038BD000009
:10696000342D0020A88202000D2D02000EB508492A
:10697000684600F035F806E00298016840688847EC
:10698000684600F047F802980028F5D10EBD0000D7
:10699000C48202000148007870470000342D0020B6
:1069A0001FB503A848DF30B1052815D004B0BDE8F5
:1069B0001040FCF7E7B90949684600F011F807E014
:1069C00002980268416803989047684600F022F8F0
:1069D00002980028E5D0F3E71FBD000030830200D5
:1069E000016009684160AFF3008010B502680CE0F7
:1069F0000021816010BDD1E90034A34203D0416879
:106A00000968816010BD083141604168536899424E
:106A1000F1D1EDE7816800290BD00268926811443A
:106A2000816042685368994203D108324260FFF79F
:106A3000DCBF70474058002800D00120704708B5DF
:106A4000002242504058009008BD000010B50C4A8A
:106A500002F1F0030EE0991AC91001EBD17149104F
:106A600002EBC1010C68844201D90B4602E005D259
:106A700001F108029A42EED3002010BD486810BD13
:106A80008881020000B5FFF7E1FF002800D101482E
:106A900000BD0000748102004058002800D0012091
:106AA000704708B5002242504058009008BDD0F809
:106AB0000403084000D0012070474058002800D04F
:106AC0000120704708B5002242504058009008BD90
:106AD00008B50548009069460448FCF735FE0028D3
:106AE00001D0FCF74FF908BD013602001430002038
:106AF0002DE9F84F06460C4600272088B6F8CA1242
:106B0000884225D196F8C60200EB8001C1EB8010C7
:106B100006EB40056088DFF800914FF0030AB846A5
:106B2000C0B10127002F13D086F8C582228869469C
:106B30003046FDF7B3FB0146E9B386F8C7822288E9
:106B40003046FDF773FC89F800A02088A9F8020000
:106B5000BDE8F88F04F1060C28799CF80010014478
:106B6000062901D8297101E00621297100231BE0C3
:106B700003EB830200EBC0010CEB420205EB410189
:106B8000D2F802B0C1F80AB0D2F806B0C1F80EB01F
:106B900052894A82A1F81480A1F81680A1F81880C1
:106BA000A1F81A80401C5B1C29798142E0D8401E64
:106BB00000EBC00000E020E005EB40010A31304668
:106BC000FDF7C6FEB8B12879062814D086F8C502AC
:106BD00021883046FDF78AFA01460029A2D086F8BE
:106BE000C78222883046FDF721FC89F800A0208862
:106BF000A9F80200ACE7012794E79DF800000028FF
:106C0000A6D0228801213046FDF7D0FB21883046EE
:106C100000F0C4F99CE70000BC30002070B50546C8
:106C20008E8805EBC604A41D2879A071C87B0128B5
:106C300002D0022805D102E02888208001E068887F
:106C400020802188608881420DD930469EDF02462F
:106C5000012092B1112A12D00A49098800EB0140A3
:106C60000949FFF709FBA079E179884209D929464A
:106C70003046BDE87040FDF7C5BA6071F3E720719A
:106C8000F1E770BD502D0020C483020010B590B014
:106C900004463422091D03A8FBF7EEFBBDF80C00E7
:106CA000BDF8102004EBC0014A732269002A0DD000
:106CB000074A53691269CDE90123ADF80600487B04
:106CC0008DF80800226901A92046904710B010BD38
:106CD000D08002001CB5002200920192091D0A8892
:106CE00000EBC2020879127B824200D21046ADF856
:106CF0000000ADF8020008880022694690DF0246D5
:106D0000002A07D004480121008801EB0040034914
:106D1000FFF7B2FA1CBD0000502D00204C84020089
:106D2000F8B505460C46B5F8CA12208888425BD1F2
:106D300095F8C60200EB8001C1EB801005EB40071F
:106D4000A61D95F8C50200EBC00007EB40000A3015
:106D5000618851BB002225E002EB420106EB4101B4
:106D60008B88B3F5245F0CD06FF4245C13EB0C0319
:106D70000AD0012B02D0072B0BD108E049884181B2
:106D800007E04988818104E04988C18101E04988A0
:106D90000182418929B1818919B1C18909B1018A69
:106DA00019B9521C31889142D6D80026009695F820
:106DB000C5023979401C884202D10120009014E0BC
:106DC00085F8C502228869462846FDF767FA01461C
:106DD00059B185F8C76222882846FDF727FB0A4883
:106DE0000321017021884180F8BD9DF80000002832
:106DF000FAD0228801212846FDF7D8FA21882846B2
:106E000000F0CCF8F8BD0000BC3000200988B0F8D4
:106E1000CA22914208D1002180F8C71280F8C81216
:106E20004FF6FF71A0F8CA127047898800EBC100C5
:106E3000801DFDF76BBE00007CB505468E88C888B6
:106E400005EBC604A41D172800D217202188814213
:106E500000D8084660800020207121883046ADDFD0
:106E600002463AB10E480121008801EB00400D496D
:106E7000FFF702FA6079002810D1286900280DD0A8
:106E80000948C1688068CDE90001ADF802606088FA
:106E9000ADF804002A696946284690477CBD000089
:106EA000502D002008840200D08002001CB58A8882
:106EB000498900EBC204A41D23888B4200D81946DF
:106EC0006180172900D217216180016969B1617958
:106ED00059B108490AC9CDE90013ADF8022061880B
:106EE000ADF8041002696946904700206071207176
:106EF0001CBD0000D080020000B585B08288002A49
:106F000011D04B8993420ED1C268002A0BD00122C6
:106F10008DF8002001F110020292897B8DF80C108F
:106F2000C2686946904705B000BD000070B50546CF
:106F30000C4695F8C60200EB8001C1EB801005EB12
:106F400040012288B5F8CA02824224D1608848B143
:106F500000212846FDF72AFA21882846BDE870401E
:106F600000F01CB8204682680A60C068C1F80600BC
:106F700021882846FDF7BAF8014600290BD00020E9
:106F800085F8C70222882846FDF750FA02480321F7
:106F900001702188418070BDBC3000202DE9F04196
:106FA00004460D4694F8C902401CC0B284F8C902D8
:106FB00019490327194EC9684FF00008884225D2A5
:106FC00084F8C58294F8C602401CC0B284F8C60298
:106FD00000EB8001C1EB801104EB4102A6F1180126
:106FE00001EB80000068106082F8048001212846CF
:106FF00094DF0146002907D084F8C7822A4620463C
:10700000FDF714FA37707580BDE8F08184F8C78207
:1070100037707580F8E70000902C0020BC3000200D
:1070200070B50024064D074E04E006EBC410C16F96
:107030008847641CE8688442F7D30020A86070BDCC
:10704000902C0020BC3000200449084490F9300006
:10705000082801DB0120704700207047D033002052
:107060000449084490F93000082801D201207047F3
:1070700000207047D033002010B50C46C379002B98
:1070800009D01AB10AA12046FEF720FD2046BDE82E
:107090001040FEF728BD007A28B1064806A1026814
:1070A0002046FEF713FD02A12046FEF70FFDEDE797
:1070B0000D0A0000102D00202573000010B5FFF709
:1070C00095FA002803D0BDE81040FBF75BBE10BD69
:1070D00070B504460D46E07900281CD1207A50B1E5
:1070E000A179A088FEF790FF0B4951F820200BA151
:1070F0002846FEF7EBFCA0880021FFF785F9034640
:107100000549A079143951F820202846BDE870407F
:1071100003A1FEF7DBBC70BD102D0020257300001D
:107120003C25733E2025733A200000000248006889
:10713000800200F1005070470C01001070B5002172
:107140000B4D0A4AEB680DE002EB81048678A478C7
:10715000B44206D132F821400688B44201D16868B1
:1071600070BD491C9942EFD3002070BDA4300020AF
:10717000902C002010B504462046FFF7DFFF08B131
:10718000002010BD074AD168062908D206482368A6
:1071900000EB81000360491CD160002010BD042079
:1071A00010BD0000902C0020A4300020024908608F
:1071B00007211120FBF701BB0815014070B50A4CEF
:1071C0004FF48030C4F84403C4F804031120FBF7E3
:1071D000D3FA1120FBF7DBFA012525602F20FDF7FC
:1071E000E3FF0248857070BD00100140B42C002000
:1071F00070B501260A49700400250860094C40104A
:10720000C4F84803C4F8080366602F20FDF7CCFFDC
:10721000A660054CA5602F20FDF7C6FFA57070BDC8
:1072200080E100E000100140B42C002070B505465C
:107230000C464FF48471E07D00280BD02846FFF700
:1072400030FCD5F81805627EE1688854607E401CE9
:10725000607670BD2846FFF724FCD5F8180570BD90
:107260001FB501238DF800308DF80810019206C873
:10727000684690471FBD10B504464FF492712068D0
:10728000FFF70FFC4FF484712068FFF70AFC2068B9
:107290000121016010BD000010B508488ADF0028F8
:1072A00001D0FBF76FFD0120FCF7C2FC002803D0E2
:1072B000BDE81040FBF766BD10BD0000E87F02008E
:1072C00038B50021012500280BD001280CD0032857
:1072D00009D107210020FDF7EDFFBDE83840FDF79B
:1072E000D3BF0A48056038BD00916846FBF772FEBF
:1072F000074C207808B9FDF79DFFE068401CE0606E
:10730000A5709DF80000FBF787FE38BD80E100E026
:10731000BC3300203EB5044609496846FFF760FBD0
:1073200008E002990A6849682046904730B16846EB
:10733000FFF770FB02980028F3D13EBD11203EBD3F
:10734000AC8202003EB5044608496846FFF748FB98
:1073500007E002990A684968204690476846FFF7A7
:1073600059FB02980028F4D13EBD0000B88202000B
:107370002DE9F0410F461446002C0ED000250A26B8
:10738000791922460020FBF763FA0544241A10B944
:10739000761E002E01D0002CF2D1BDE8F08110B590
:1073A00004460020FCF744FC08B1FBF7EBFC24B9D1
:1073B000FCF774FB08B1FBF7E5FC012010BD0000F1
:1073C00070B5194D194C07E00168207888470028EE
:1073D00028D01548FFF71EFBA8680028F4D1FFF756
:1073E00023F8FEF737FE0028FBD1207803280CD0C5
:1073F00002280AD0FFF7CEFA00B132DF0C49012093
:107400000860BFF34F8F20BFFDE7BFF34F8F0948E0
:107410000168094A01F4E06111430160BFF34F8F35
:1074200000BFFDE770BD0000C8350020D82C00204B
:10743000000500400CED00E00400FA05002801D131
:10744000FCF778BE7047000010B51620FBF7DEFB96
:1074500030B1164800784009082804D300200AE01B
:1074600042F201001AE088B101280FD004280DD0A3
:1074700005280BD0012058B10D4882684FF48001D7
:107480004AB1016841F48001016006E00020F2E7A2
:1074900042F2020002E0074801600020002803D009
:1074A000BDE81040FBF76EBC10BD000016E400E024
:1074B000BC35002000E100E0F7B582B09DF808007F
:1074C000012862D1324D6871324E032732A13088D3
:1074D00007EB0040FEF7CCFE6869C1788278CDE901
:1074E000002143780278308830A107EB0040FEF796
:1074F000D2FE6869C1798279CDE9002143790279A8
:1075000030882AA107EB0040FEF7C5FE30882CA189
:1075100007EB0040FEF7ACFE2C4CE078A178CDE9FB
:10752000001030886378227807EB00401FA1FEF737
:10753000B2FEE079A179CDE9001030886379227933
:1075400007EB004019A1FEF7A6FE2879A0B16078EC
:10755000A0281AD12879002817D030881CA107EB61
:107560000040FEF785FE214605B00822BDE8F04048
:1075700001F58070FCF77EB91448401C016869620F
:1075800081882985807985F82A0005B0F0BD000042
:1075900078290020B02D0020205472616E7366653A
:1075A0007220636F6D706C6574656400253032788D
:1075B00025303278253032782530327800000000CE
:1075C000205265636569766564000000142F002011
:1075D0004368616E67696E672073616D706C696E78
:1075E00067206672657175656E63790000B587B056
:1075F00018220C4901A8FAF73FFF1D2004901C2017
:10760000019004200290032003900648064A01A935
:107610003038FDF7ADFF002801D0FBF7B3FB07B012
:1076200000BD000008800200B974020070B5054674
:107630000C464FF4947631462846FFF7FBF9D8B153
:1076400031462846FFF7FBF9607D012814D12168F7
:10765000E068C9B2C5F84405C5F8481561682069F5
:10766000C9B2C5F83405C5F838150120A862022250
:107670002146284600F017F84FF482763146284616
:10768000FFF7D8F900280DD031462846FFF7D7F983
:10769000607D022806D121462846BDE870400322BD
:1076A00000F001B870BD4A75AFF300803EB50C46DE
:1076B000617D0122012912D0022912D003290FD1A4
:1076C0008DF80020D0F83C15C9B20191D0F84C05D6
:1076D000C0B20290A06800B10120A8B117E04262D8
:1076E0003EBD00208DF8000001900290A06800B11E
:1076F000012010B90020FBF745FB9DE80700A368B7
:1077000003B0BDE8304018470020FBF73BFB9DE885
:107710000700A36803B0BDE83040184710B5044621
:107720000120FCF71BFA10B10220207010BD0020D0
:10773000FCF714FA10B10B20207010BD002020704F
:1077400010BD00002DE9F84F0546894692461F46B8
:10775000DFF87C80D8F8086069463846FCF710FCF2
:1077600058B3009A941C002008E02146641C314064
:1077700008EB81015AF82030CB60401CB842F4D3AA
:10778000280C511C314008EB8101C860324008EBE5
:1077900082000C30E90603D5016841F0040102E0E3
:1077A000016821F0040165F3C50167F3891169F3EC
:1077B0009F2121F00301491C016098F81C04002856
:1077C00003D0FEF747FC0028FBD1BDE8F88F00008E
:1077D000D43600202DE9F04107460D461446002618
:1077E000D80705D113E06D1C761C3846FCF7FAFB70
:1077F00029780029F7D104E0641E20213846FCF7DF
:10780000F1FBB44201D9002CF6D1BDE8F0814DB1B5
:107810002846FAF755FE064604E0641E2021384645
:10782000FCF7E0FBB44206D9002CF6D103E06D1C56
:107830003846FCF7D7FB29780029F8D1E5E7D0E9ED
:1078400005210846104710B5FBF7F2FA002803D0CF
:10785000BDE81040FBF796BA10BD00002DE9FC41D1
:107860000026019600240D4DAF68D5F804806846C7
:10787000FCF72AFE28B101AA39460098FCF7E0FE81
:1078800001240198FDF74EF900B1012414B14046DE
:10789000FCF764FCEE70BDE8FC810000B42C002015
:1078A0001420FAF77FBF000010B5104C6168002962
:1078B00008D002680B689A4206D89A1A0A60C16119
:1078C000606010BD606010BD0C4602E0D21A0C462C
:1078D000C96911B10B689342F8D311B10B689B1AB7
:1078E0000B600260C161E06110BD0000B42C00209B
:1078F0002DE9F041164E77683D462F463C4603E0A1
:10790000844203D02546E469002CF9D12CB1A5426C
:107910000FD1F869706018B10BE00020BDE8F0816C
:107920000C49012088600021B160F0702F20FDF724
:107930003BFC2168E069E86110B102681144016014
:107940007068874201D00120E8E70020E6E70000E8
:10795000B42C0020001001402DE9FC4105460E46E4
:10796000174698460024002000906846FBF732FB3B
:1079700001A800F011FB98B10121017045600C498C
:1079800009688160C6600761C0F814809DF8040032
:1079900000F01AFB9DF80000FBF73EFB14B103E07A
:1079A0000424F7E7FFF77CFF2046BDE8FC810000D8
:1079B000041501407CB506460D46002400200090C9
:1079C0006846FBF707FB01A800F0E6FA58B105701E
:1079D00046609DF8040000F0F7FA9DF80000FBF700
:1079E0001BFB14B103E00424F7E7FFF759FF20461F
:1079F0007CBD00002DE9F041DFF86C80D8F8044030
:107A0000002C2FD0002619480068D8F80810401A1A
:107A100020F07F4500270BE02068A8420AD82D1AE5
:107A200006442046E469017C11B10774FFF707FFA3
:107A3000002CF1D198F8001098F80100814207D18C
:107A4000401CC0B288F80100022801D188F80170FA
:107A5000054898F801100C3040F82160BDE8F0416D
:107A6000FFF71EBFBDE8F081B42C002004150140D3
:107A70001120FAF797BE70B505460C464FF48E718B
:107A80002846FFF70EF8A18AA068415CA28A521C22
:107A9000A282C5F81C1570BD1FB500228DF800200C
:107AA0008DF8081081680191827506C86846904774
:107AB0001FBD000070B50446244E2178002910D067
:107AC000304601220088012902EB004036D002290D
:107AD00033D11FA1FEF7CCFB6068BDE87040FBF717
